{"abi":[{"type":"function","name":"deploy","inputs":[],"outputs":[{"name":"","type":"address","internalType":"address"}],"stateMutability":"nonpayable"}],"bytecode":{"object":"0x6080604052348015600e575f5ffd5b506118f98061001c5f395ff3fe6080604052348015600e575f5ffd5b50600436106026575f3560e01c8063775c300c14602a575b5f5ffd5b60306044565b604051603b919060c3565b60405180910390f35b5f5f33604051605190607b565b6059919060c3565b604051809103905ff0801580156071573d5f5f3e3d5ffd5b5090508091505090565b6117e9806100db83390190565b5f73ffffffffffffffffffffffffffffffffffffffff82169050919050565b5f60af826088565b9050919050565b60bd8160a7565b82525050565b5f60208201905060d45f83018460b6565b9291505056fe60806040526001600355348015610014575f5ffd5b506040516117e93803806117e9833981810160405281019061003691906101dc565b805f73ffffffffffffffffffffffffffffffffffffffff168173ffffffffffffffffffffffffffffffffffffffff16036100a7575f6040517f1e4fbdf700000000000000000000000000000000000000000000000000000000815260040161009e9190610216565b60405180910390fd5b6100b6816100bd60201b60201c565b505061022f565b5f5f5f9054906101000a900473ffffffffffffffffffffffffffffffffffffffff169050815f5f6101000a81548173ffffffffffffffffffffffffffffffffffffffff021916908373ffffffffffffffffffffffffffffffffffffffff1602179055508173ffffffffffffffffffffffffffffffffffffffff168173ffffffffffffffffffffffffffffffffffffffff167f8be0079c531659141344cd1fd0a4f28419497f9722a3daafe3b4186f6b6457e060405160405180910390a35050565b5f5ffd5b5f73ffffffffffffffffffffffffffffffffffffffff82169050919050565b5f6101ab82610182565b9050919050565b6101bb816101a1565b81146101c5575f5ffd5b50565b5f815190506101d6816101b2565b92915050565b5f602082840312156101f1576101f061017e565b5b5f6101fe848285016101c8565b91505092915050565b610210816101a1565b82525050565b5f6020820190506102295f830184610207565b92915050565b6115ad8061023c5f395ff3fe608060405234801561000f575f5ffd5b506004361061007b575f3560e01c8063b9ed6fca11610059578063b9ed6fca146100c3578063e6505e1e146100df578063ef1d6ddd1461010f578063f2fde38b1461012d5761007b565b80633f06f6e81461007f578063715018a61461009b5780638da5cb5b146100a5575b5f5ffd5b61009960048036038101906100949190610d18565b610149565b005b6100a3610220565b005b6100ad610233565b6040516100ba9190610dfb565b60405180910390f35b6100dd60048036038101906100d89190610e14565b61025a565b005b6100f960048036038101906100f49190610e14565b6103be565b6040516101069190610fc4565b60405180910390f35b6101176105bf565b604051610124919061110d565b60405180910390f35b61014760048036038101906101429190611157565b610819565b005b61015161089d565b5f600354905060405180608001604052808281526020018581526020018481526020018381525060015f8381526020019081526020015f205f820151815f015560208201518160010190816101a6919061137f565b5060408201518160020190816101bc919061137f565b5060608201518160030190805190602001906101d99291906109ec565b50905050600281908060018154018082558091505060019003905f5260205f20015f909190919091505560035f8154809291906102159061147b565b919050555050505050565b61022861089d565b6102315f610924565b565b5f5f5f9054906101000a900473ffffffffffffffffffffffffffffffffffffffff16905090565b61026261089d565b5f60015f8381526020019081526020015f205f0154036102b957806040517ff55dec000000000000000000000000000000000000000000000000000000000081526004016102b091906114d1565b60405180910390fd5b60015f8281526020019081526020015f205f5f82015f9055600182015f6102e09190610a37565b600282015f6102ef9190610a37565b600382015f6102fe9190610a74565b50505f5f90505b6002805490508110156103ba578160028281548110610327576103266114ea565b5b905f5260205f200154036103ad57600260016002805490506103499190611517565b8154811061035a576103596114ea565b5b905f5260205f20015460028281548110610377576103766114ea565b5b905f5260205f20018190555060028054806103955761039461154a565b5b600190038181905f5260205f20015f905590556103ba565b8080600101915050610305565b5050565b6103c6610a92565b5f60015f8481526020019081526020015f205f01540361041d57816040517ff55dec0000000000000000000000000000000000000000000000000000000000815260040161041491906114d1565b60405180910390fd5b60015f8381526020019081526020015f206040518060800160405290815f8201548152602001600182018054610452906111af565b80601f016020809104026020016040519081016040528092919081815260200182805461047e906111af565b80156104c95780601f106104a0576101008083540402835291602001916104c9565b820191905f5260205f20905b8154815290600101906020018083116104ac57829003601f168201915b505050505081526020016002820180546104e2906111af565b80601f016020809104026020016040519081016040528092919081815260200182805461050e906111af565b80156105595780601f1061053057610100808354040283529160200191610559565b820191905f5260205f20905b81548152906001019060200180831161053c57829003601f168201915b50505050508152602001600382018054806020026020016040519081016040528092919081815260200182805480156105af57602002820191905f5260205f20905b81548152602001906001019080831161059b575b5050505050815250509050919050565b60605f60028054905067ffffffffffffffff8111156105e1576105e0610afd565b5b60405190808252806020026020018201604052801561061a57816020015b610607610a92565b8152602001906001900390816105ff5790505b5090505f5f90505b6002805490508110156108115760015f60028381548110610646576106456114ea565b5b905f5260205f20015481526020019081526020015f206040518060800160405290815f8201548152602001600182018054610680906111af565b80601f01602080910402602001604051908101604052809291908181526020018280546106ac906111af565b80156106f75780601f106106ce576101008083540402835291602001916106f7565b820191905f5260205f20905b8154815290600101906020018083116106da57829003601f168201915b50505050508152602001600282018054610710906111af565b80601f016020809104026020016040519081016040528092919081815260200182805461073c906111af565b80156107875780601f1061075e57610100808354040283529160200191610787565b820191905f5260205f20905b81548152906001019060200180831161076a57829003601f168201915b50505050508152602001600382018054806020026020016040519081016040528092919081815260200182805480156107dd57602002820191905f5260205f20905b8154815260200190600101908083116107c9575b5050505050815250508282815181106107f9576107f86114ea565b5b60200260200101819052508080600101915050610622565b508091505090565b61082161089d565b5f73ffffffffffffffffffffffffffffffffffffffff168173ffffffffffffffffffffffffffffffffffffffff1603610891575f6040517f1e4fbdf70000000000000000000000000000000000000000000000000000000081526004016108889190610dfb565b60405180910390fd5b61089a81610924565b50565b6108a56109e5565b73ffffffffffffffffffffffffffffffffffffffff166108c3610233565b73ffffffffffffffffffffffffffffffffffffffff1614610922576108e66109e5565b6040517f118cdaa70000000000000000000000000000000000000000000000000000000081526004016109199190610dfb565b60405180910390fd5b565b5f5f5f9054906101000a900473ffffffffffffffffffffffffffffffffffffffff169050815f5f6101000a81548173ffffffffffffffffffffffffffffffffffffffff021916908373ffffffffffffffffffffffffffffffffffffffff1602179055508173ffffffffffffffffffffffffffffffffffffffff168173ffffffffffffffffffffffffffffffffffffffff167f8be0079c531659141344cd1fd0a4f28419497f9722a3daafe3b4186f6b6457e060405160405180910390a35050565b5f33905090565b828054828255905f5260205f20908101928215610a26579160200282015b82811115610a25578251825591602001919060010190610a0a565b5b509050610a339190610ab9565b5090565b508054610a43906111af565b5f825580601f10610a545750610a71565b601f0160209004905f5260205f2090810190610a709190610ab9565b5b50565b5080545f8255905f5260205f2090810190610a8f9190610ab9565b50565b60405180608001604052805f81526020016060815260200160608152602001606081525090565b5b80821115610ad0575f815f905550600101610aba565b5090565b5f604051905090565b5f5ffd5b5f5ffd5b5f5ffd5b5f5ffd5b5f601f19601f8301169050919050565b7f4e487b71000000000000000000000000000000000000000000000000000000005f52604160045260245ffd5b610b3382610aed565b810181811067ffffffffffffffff82111715610b5257610b51610afd565b5b80604052505050565b5f610b64610ad4565b9050610b708282610b2a565b919050565b5f67ffffffffffffffff821115610b8f57610b8e610afd565b5b610b9882610aed565b9050602081019050919050565b828183375f83830152505050565b5f610bc5610bc084610b75565b610b5b565b905082815260208101848484011115610be157610be0610ae9565b5b610bec848285610ba5565b509392505050565b5f82601f830112610c0857610c07610ae5565b5b8135610c18848260208601610bb3565b91505092915050565b5f67ffffffffffffffff821115610c3b57610c3a610afd565b5b602082029050602081019050919050565b5f5ffd5b5f819050919050565b610c6281610c50565b8114610c6c575f5ffd5b50565b5f81359050610c7d81610c59565b92915050565b5f610c95610c9084610c21565b610b5b565b90508083825260208201905060208402830185811115610cb857610cb7610c4c565b5b835b81811015610ce15780610ccd8882610c6f565b845260208401935050602081019050610cba565b5050509392505050565b5f82601f830112610cff57610cfe610ae5565b5b8135610d0f848260208601610c83565b91505092915050565b5f5f5f60608486031215610d2f57610d2e610add565b5b5f84013567ffffffffffffffff811115610d4c57610d4b610ae1565b5b610d5886828701610bf4565b935050602084013567ffffffffffffffff811115610d7957610d78610ae1565b5b610d8586828701610bf4565b925050604084013567ffffffffffffffff811115610da657610da5610ae1565b5b610db286828701610ceb565b9150509250925092565b5f73ffffffffffffffffffffffffffffffffffffffff82169050919050565b5f610de582610dbc565b9050919050565b610df581610ddb565b82525050565b5f602082019050610e0e5f830184610dec565b92915050565b5f60208284031215610e2957610e28610add565b5b5f610e3684828501610c6f565b91505092915050565b610e4881610c50565b82525050565b5f81519050919050565b5f82825260208201905092915050565b8281835e5f83830152505050565b5f610e8082610e4e565b610e8a8185610e58565b9350610e9a818560208601610e68565b610ea381610aed565b840191505092915050565b5f81519050919050565b5f82825260208201905092915050565b5f819050602082019050919050565b5f610ee28383610e3f565b60208301905092915050565b5f602082019050919050565b5f610f0482610eae565b610f0e8185610eb8565b9350610f1983610ec8565b805f5b83811015610f49578151610f308882610ed7565b9750610f3b83610eee565b925050600181019050610f1c565b5085935050505092915050565b5f608083015f830151610f6b5f860182610e3f565b5060208301518482036020860152610f838282610e76565b91505060408301518482036040860152610f9d8282610e76565b91505060608301518482036060860152610fb78282610efa565b9150508091505092915050565b5f6020820190508181035f830152610fdc8184610f56565b905092915050565b5f81519050919050565b5f82825260208201905092915050565b5f819050602082019050919050565b5f608083015f8301516110225f860182610e3f565b506020830151848203602086015261103a8282610e76565b915050604083015184820360408601526110548282610e76565b9150506060830151848203606086015261106e8282610efa565b9150508091505092915050565b5f611086838361100d565b905092915050565b5f602082019050919050565b5f6110a482610fe4565b6110ae8185610fee565b9350836020820285016110c085610ffe565b805f5b858110156110fb57848403895281516110dc858261107b565b94506110e78361108e565b925060208a019950506001810190506110c3565b50829750879550505050505092915050565b5f6020820190508181035f830152611125818461109a565b905092915050565b61113681610ddb565b8114611140575f5ffd5b50565b5f813590506111518161112d565b92915050565b5f6020828403121561116c5761116b610add565b5b5f61117984828501611143565b91505092915050565b7f4e487b71000000000000000000000000000000000000000000000000000000005f52602260045260245ffd5b5f60028204905060018216806111c657607f821691505b6020821081036111d9576111d8611182565b5b50919050565b5f819050815f5260205f209050919050565b5f6020601f8301049050919050565b5f82821b905092915050565b5f6008830261123b7fffffffffffffffffffffffffffffffffffffffffffffffffffffffffffffffff82611200565b6112458683611200565b95508019841693508086168417925050509392505050565b5f819050919050565b5f61128061127b61127684610c50565b61125d565b610c50565b9050919050565b5f819050919050565b61129983611266565b6112ad6112a582611287565b84845461120c565b825550505050565b5f5f905090565b6112c46112b5565b6112cf818484611290565b505050565b5b818110156112f2576112e75f826112bc565b6001810190506112d5565b5050565b601f82111561133757611308816111df565b611311846111f1565b81016020851015611320578190505b61133461132c856111f1565b8301826112d4565b50505b505050565b5f82821c905092915050565b5f6113575f198460080261133c565b1980831691505092915050565b5f61136f8383611348565b9150826002028217905092915050565b61138882610e4e565b67ffffffffffffffff8111156113a1576113a0610afd565b5b6113ab82546111af565b6113b68282856112f6565b5f60209050601f8311600181146113e7575f84156113d5578287015190505b6113df8582611364565b865550611446565b601f1984166113f5866111df565b5f5b8281101561141c578489015182556001820191506020850194506020810190506113f7565b868310156114395784890151611435601f891682611348565b8355505b6001600288020188555050505b505050505050565b7f4e487b71000000000000000000000000000000000000000000000000000000005f52601160045260245ffd5b5f61148582610c50565b91507fffffffffffffffffffffffffffffffffffffffffffffffffffffffffffffffff82036114b7576114b661144e565b5b600182019050919050565b6114cb81610c50565b82525050565b5f6020820190506114e45f8301846114c2565b92915050565b7f4e487b71000000000000000000000000000000000000000000000000000000005f52603260045260245ffd5b5f61152182610c50565b915061152c83610c50565b92508282039050818111156115445761154361144e565b5b92915050565b7f4e487b71000000000000000000000000000000000000000000000000000000005f52603160045260245ffdfea2646970667358221220852ddbfa3eb560bb5f49452f01f183385808df91b92d439946b9e6d39aa3e6de64736f6c634300081e0033a26469706673582212206d2b01b4cf436889ed85c19debe773ac2cd8f050799332cef7d108a99d8e48a564736f6c634300081e0033","linkReferences":{}},"methodIdentifiers":{"deploy()":"775c300c"},"id":25}