{"abi":[{"type":"function","name":"afterY2K","inputs":[],"outputs":[{"name":"recentTimestamps","type":"uint256[]","internalType":"uint256[]"},{"name":"recentSenders","type":"address[]","internalType":"address[]"}],"stateMutability":"view"},{"type":"function","name":"appendToNumbers","inputs":[{"name":"_toAppend","type":"uint256[]","internalType":"uint256[]"}],"outputs":[],"stateMutability":"nonpayable"},{"type":"function","name":"getNumbers","inputs":[],"outputs":[{"name":"","type":"uint256[]","internalType":"uint256[]"}],"stateMutability":"view"},{"type":"function","name":"numbers","inputs":[{"name":"","type":"uint256","internalType":"uint256"}],"outputs":[{"name":"","type":"uint256","internalType":"uint256"}],"stateMutability":"view"},{"type":"function","name":"resetNumbers","inputs":[],"outputs":[],"stateMutability":"nonpayable"},{"type":"function","name":"resetSenders","inputs":[],"outputs":[],"stateMutability":"nonpayable"},{"type":"function","name":"resetTimestamps","inputs":[],"outputs":[],"stateMutability":"nonpayable"},{"type":"function","name":"saveTimestamp","inputs":[{"name":"_unixTimestamp","type":"uint256","internalType":"uint256"}],"outputs":[],"stateMutability":"nonpayable"},{"type":"function","name":"senders","inputs":[{"name":"","type":"uint256","internalType":"uint256"}],"outputs":[{"name":"","type":"address","internalType":"address"}],"stateMutability":"view"},{"type":"function","name":"timestamps","inputs":[{"name":"","type":"uint256","internalType":"uint256"}],"outputs":[{"name":"","type":"uint256","internalType":"uint256"}],"stateMutability":"view"}],"bytecode":{"object":"0x6080604052604051806101400160405280600160ff168152602001600260ff168152602001600360ff168152602001600460ff168152602001600560ff168152602001600660ff168152602001600760ff168152602001600860ff168152602001600960ff168152602001600a60ff168152505f90600a610081929190610093565b5034801561008d575f5ffd5b506100fe565b828054828255905f5260205f209081019282156100d2579160200282015b828111156100d1578251829060ff169055916020019190600101906100b1565b5b5090506100df91906100e3565b5090565b5b808211156100fa575f815f9055506001016100e4565b5090565b610b408061010b5f395ff3fe608060405234801561000f575f5ffd5b506004361061009c575f3560e01c80639977c78a116100645780639977c78a14610133578063a00b7acd14610163578063ade82bfd1461017f578063b1cebac514610189578063d39fa233146101935761009c565b806320aaf79a146100a05780634f9377db146100bf5780637f66b1b8146100db57806389f915f6146100e55780638bc33af314610103575b5f5ffd5b6100a86101c3565b6040516100b692919061088e565b60405180910390f35b6100d960048036038101906100d4919061092c565b6103de565b005b6100e361043e565b005b6100ed61044d565b6040516100fa9190610977565b60405180910390f35b61011d600480360381019061011891906109c1565b6104a2565b60405161012a91906109fb565b60405180910390f35b61014d600480360381019061014891906109c1565b6104c2565b60405161015a9190610a23565b60405180910390f35b61017d600480360381019061017891906109c1565b6104fd565b005b610187610586565b005b610191610595565b005b6101ad60048036038101906101a891906109c1565b610621565b6040516101ba91906109fb565b60405180910390f35b6060805f63386d89d090505f5f90505f5f90505b6002805490508110156102245782600282815481106101f9576101f8610a3c565b5b905f5260205f200154111561021757818061021390610a96565b9250505b80806001019150506101d7565b508067ffffffffffffffff81111561023f5761023e610add565b5b60405190808252806020026020018201604052801561026d5781602001602082028036833780820191505090505b5093508067ffffffffffffffff81111561028a57610289610add565b5b6040519080825280602002602001820160405280156102b85781602001602082028036833780820191505090505b5092505f5f90505f5f90505b6002805490508110156103d65783600282815481106102e6576102e5610a3c565b5b905f5260205f20015411156103c9576002818154811061030957610308610a3c565b5b905f5260205f20015486838151811061032557610324610a3c565b5b6020026020010181815250506001818154811061034557610344610a3c565b5b905f5260205f20015f9054906101000a900473ffffffffffffffffffffffffffffffffffffffff168583815181106103805761037f610a3c565b5b602002602001019073ffffffffffffffffffffffffffffffffffffffff16908173ffffffffffffffffffffffffffffffffffffffff168152505081806103c590610a96565b9250505b80806001019150506102c4565b505050509091565b5f5f90505b82829050811015610439575f83838381811061040257610401610a3c565b5b90506020020135908060018154018082558091505060019003905f5260205f20015f909190919091505580806001019150506103e3565b505050565b60015f61044b9190610640565b565b60605f80548060200260200160405190810160405280929190818152602001828054801561049857602002820191905f5260205f20905b815481526020019060010190808311610484575b5050505050905090565b600281815481106104b1575f80fd5b905f5260205f20015f915090505481565b600181815481106104d1575f80fd5b905f5260205f20015f915054906101000a900473ffffffffffffffffffffffffffffffffffffffff1681565b600133908060018154018082558091505060019003905f5260205f20015f9091909190916101000a81548173ffffffffffffffffffffffffffffffffffffffff021916908373ffffffffffffffffffffffffffffffffffffffff160217905550600281908060018154018082558091505060019003905f5260205f20015f909190919091505550565b60025f610593919061065e565b565b5f5f6105a1919061065e565b604051806101400160405280600160ff168152602001600260ff168152602001600360ff168152602001600460ff168152602001600560ff168152602001600660ff168152602001600760ff168152602001600860ff168152602001600960ff168152602001600a60ff168152505f90600a61061e92919061067c565b50565b5f818154811061062f575f80fd5b905f5260205f20015f915090505481565b5080545f8255905f5260205f209081019061065b91906106cc565b50565b5080545f8255905f5260205f209081019061067991906106cc565b50565b828054828255905f5260205f209081019282156106bb579160200282015b828111156106ba578251829060ff1690559160200191906001019061069a565b5b5090506106c891906106cc565b5090565b5b808211156106e3575f815f9055506001016106cd565b5090565b5f81519050919050565b5f82825260208201905092915050565b5f819050602082019050919050565b5f819050919050565b61072281610710565b82525050565b5f6107338383610719565b60208301905092915050565b5f602082019050919050565b5f610755826106e7565b61075f81856106f1565b935061076a83610701565b805f5b8381101561079a5781516107818882610728565b975061078c8361073f565b92505060018101905061076d565b5085935050505092915050565b5f81519050919050565b5f82825260208201905092915050565b5f819050602082019050919050565b5f73ffffffffffffffffffffffffffffffffffffffff82169050919050565b5f6107f9826107d0565b9050919050565b610809816107ef565b82525050565b5f61081a8383610800565b60208301905092915050565b5f602082019050919050565b5f61083c826107a7565b61084681856107b1565b9350610851836107c1565b805f5b83811015610881578151610868888261080f565b975061087383610826565b925050600181019050610854565b5085935050505092915050565b5f6040820190508181035f8301526108a6818561074b565b905081810360208301526108ba8184610832565b90509392505050565b5f5ffd5b5f5ffd5b5f5ffd5b5f5ffd5b5f5ffd5b5f5f83601f8401126108ec576108eb6108cb565b5b8235905067ffffffffffffffff811115610909576109086108cf565b5b602083019150836020820283011115610925576109246108d3565b5b9250929050565b5f5f60208385031215610942576109416108c3565b5b5f83013567ffffffffffffffff81111561095f5761095e6108c7565b5b61096b858286016108d7565b92509250509250929050565b5f6020820190508181035f83015261098f818461074b565b905092915050565b6109a081610710565b81146109aa575f5ffd5b50565b5f813590506109bb81610997565b92915050565b5f602082840312156109d6576109d56108c3565b5b5f6109e3848285016109ad565b91505092915050565b6109f581610710565b82525050565b5f602082019050610a0e5f8301846109ec565b92915050565b610a1d816107ef565b82525050565b5f602082019050610a365f830184610a14565b92915050565b7f4e487b71000000000000000000000000000000000000000000000000000000005f52603260045260245ffd5b7f4e487b71000000000000000000000000000000000000000000000000000000005f52601160045260245ffd5b5f610aa082610710565b91507fffffffffffffffffffffffffffffffffffffffffffffffffffffffffffffffff8203610ad257610ad1610a69565b5b600182019050919050565b7f4e487b71000000000000000000000000000000000000000000000000000000005f52604160045260245ffdfea2646970667358221220fa0eb82ac31b2765614459983b4f4d33dcff2c2e9eb1c751cff0bd803f6f3af664736f6c634300081e0033","linkReferences":{}},"methodIdentifiers":{"afterY2K()":"20aaf79a","appendToNumbers(uint256[])":"4f9377db","getNumbers()":"89f915f6","numbers(uint256)":"d39fa233","resetNumbers()":"b1cebac5","resetSenders()":"7f66b1b8","resetTimestamps()":"ade82bfd","saveTimestamp(uint256)":"a00b7acd","senders(uint256)":"9977c78a","timestamps(uint256)":"8bc33af3"},"id":26}