{"abi":[{"type":"function","name":"adder","inputs":[{"name":"_a","type":"uint256","internalType":"uint256"},{"name":"_b","type":"uint256","internalType":"uint256"}],"outputs":[{"name":"sum","type":"uint256","internalType":"uint256"},{"name":"error","type":"bool","internalType":"bool"}],"stateMutability":"pure"},{"type":"function","name":"subtractor","inputs":[{"name":"_a","type":"uint256","internalType":"uint256"},{"name":"_b","type":"uint256","internalType":"uint256"}],"outputs":[{"name":"difference","type":"uint256","internalType":"uint256"},{"name":"error","type":"bool","internalType":"bool"}],"stateMutability":"pure"}],"bytecode":{"object":"0x608060405234801561001057600080fd5b50610249806100206000396000f3fe608060405234801561001057600080fd5b50600436106100365760003560e01c806306b034e91461003b5780635270312a1461006c575b600080fd5b6100556004803603810190610050919061011d565b61009d565b604051610063929190610187565b60405180910390f35b6100866004803603810190610081919061011d565b6100b1565b604051610094929190610187565b60405180910390f35b600080828401915083821090509250929050565b6000808284106100d25782846100c791906101df565b9150600090506100db565b60009150600190505b9250929050565b600080fd5b6000819050919050565b6100fa816100e7565b811461010557600080fd5b50565b600081359050610117816100f1565b92915050565b60008060408385031215610134576101336100e2565b5b600061014285828601610108565b925050602061015385828601610108565b9150509250929050565b610166816100e7565b82525050565b60008115159050919050565b6101818161016c565b82525050565b600060408201905061019c600083018561015d565b6101a96020830184610178565b9392505050565b7f4e487b7100000000000000000000000000000000000000000000000000000000600052601160045260246000fd5b60006101ea826100e7565b91506101f5836100e7565b925082820390508181111561020d5761020c6101b0565b5b9291505056fea26469706673582212202586c6fdbb207a6f8482606c81e226ddf17ea4c05da3d63669cef6ab4db4faf864736f6c63430008110033","linkReferences":{}},"methodIdentifiers":{"adder(uint256,uint256)":"06b034e9","subtractor(uint256,uint256)":"5270312a"},"id":0}