{"abi":[{"type":"function","name":"doNotDisturb","inputs":[{"name":"_time","type":"uint256","internalType":"uint256"}],"outputs":[{"name":"","type":"string","internalType":"string"}],"stateMutability":"pure"},{"type":"function","name":"fizzBuzz","inputs":[{"name":"_number","type":"uint256","internalType":"uint256"}],"outputs":[{"name":"","type":"string","internalType":"string"}],"stateMutability":"pure"},{"type":"error","name":"AfterHours","inputs":[{"name":"time","type":"uint256","internalType":"uint256"}]}],"bytecode":{"object":"0x608060405234801561001057600080fd5b50610649806100206000396000f3fe608060405234801561001057600080fd5b50600436106100365760003560e01c8063440c93e21461003b578063e655b7bb1461006b575b600080fd5b6100556004803603810190610050919061040f565b61009b565b60405161006291906104cc565b60405180910390f35b6100856004803603810190610080919061040f565b6101ce565b60405161009291906104cc565b60405180910390f35b60606000600f836100ac919061051d565b036100ee576040518060400160405280600881526020017f46697a7a42757a7a00000000000000000000000000000000000000000000000081525090506101c9565b60006003836100fd919061051d565b0361013f576040518060400160405280600481526020017f46697a7a0000000000000000000000000000000000000000000000000000000081525090506101c9565b600060058361014e919061051d565b03610190576040518060400160405280600481526020017f42757a7a0000000000000000000000000000000000000000000000000000000081525090506101c9565b6040518060400160405280600581526020017f53706c617400000000000000000000000000000000000000000000000000000081525090505b919050565b606061096082106101e95760006101e8576101e761054e565b5b5b6108988211806101fa575061032082105b1561023c57816040517fa4bf701e000000000000000000000000000000000000000000000000000000008152600401610233919061058c565b60405180910390fd5b6104b0821015801561025057506104eb8211155b15610290576040517f08c379a0000000000000000000000000000000000000000000000000000000008152600401610287906105f3565b60405180910390fd5b61032082101580156102a457506104af8211155b156102e6576040518060400160405280600881526020017f4d6f726e696e672100000000000000000000000000000000000000000000000081525090506103cf565b61051482101580156102fa57506107078211155b1561033c576040518060400160405280600a81526020017f41667465726e6f6f6e210000000000000000000000000000000000000000000081525090506103cf565b610708821015801561035057506108988211155b15610392576040518060400160405280600881526020017f4576656e696e672100000000000000000000000000000000000000000000000081525090506103cf565b816040517fa4bf701e0000000000000000000000000000000000000000000000000000000081526004016103c6919061058c565b60405180910390fd5b919050565b600080fd5b6000819050919050565b6103ec816103d9565b81146103f757600080fd5b50565b600081359050610409816103e3565b92915050565b600060208284031215610425576104246103d4565b5b6000610433848285016103fa565b91505092915050565b600081519050919050565b600082825260208201905092915050565b60005b8381101561047657808201518184015260208101905061045b565b60008484015250505050565b6000601f19601f8301169050919050565b600061049e8261043c565b6104a88185610447565b93506104b8818560208601610458565b6104c181610482565b840191505092915050565b600060208201905081810360008301526104e68184610493565b905092915050565b7f4e487b7100000000000000000000000000000000000000000000000000000000600052601260045260246000fd5b6000610528826103d9565b9150610533836103d9565b925082610543576105426104ee565b5b828206905092915050565b7f4e487b7100000000000000000000000000000000000000000000000000000000600052600160045260246000fd5b610586816103d9565b82525050565b60006020820190506105a1600083018461057d565b92915050565b7f4174206c756e6368210000000000000000000000000000000000000000000000600082015250565b60006105dd600983610447565b91506105e8826105a7565b602082019050919050565b6000602082019050818103600083015261060c816105d0565b905091905056fea26469706673582212200ed550e08a4013d66f3fa86c0ae22a733df87cca785cd379e6738e728f71513e64736f6c63430008110033","linkReferences":{}},"methodIdentifiers":{"doNotDisturb(uint256)":"e655b7bb","fizzBuzz(uint256)":"440c93e2"},"id":1}