{"abi":[{"type":"constructor","inputs":[],"stateMutability":"nonpayable"},{"type":"function","name":"checkForPacking","inputs":[{"name":"_slot","type":"uint256","internalType":"uint256"}],"outputs":[{"name":"r","type":"uint256","internalType":"uint256"}],"stateMutability":"view"},{"type":"function","name":"debugResetShares","inputs":[],"outputs":[],"stateMutability":"nonpayable"},{"type":"function","name":"grantShares","inputs":[{"name":"_newShares","type":"uint16","internalType":"uint16"}],"outputs":[],"stateMutability":"nonpayable"},{"type":"function","name":"idNumber","inputs":[],"outputs":[{"name":"","type":"uint256","internalType":"uint256"}],"stateMutability":"view"},{"type":"function","name":"name","inputs":[],"outputs":[{"name":"","type":"string","internalType":"string"}],"stateMutability":"view"},{"type":"function","name":"viewSalary","inputs":[],"outputs":[{"name":"","type":"uint256","internalType":"uint256"}],"stateMutability":"view"},{"type":"function","name":"viewShares","inputs":[],"outputs":[{"name":"","type":"uint256","internalType":"uint256"}],"stateMutability":"view"},{"type":"error","name":"TooManyShares","inputs":[{"name":"totalShares","type":"uint256","internalType":"uint256"}]}],"bytecode":{"object":"0x60806040523480156200001157600080fd5b506103e86000806101000a81548161ffff021916908361ffff1602179055506040518060400160405280600381526020017f50617400000000000000000000000000000000000000000000000000000000008152506002908162000076919062000324565b5061c350600060026101000a81548162ffffff021916908362ffffff160217905550641a291109a66001819055506200040b565b600081519050919050565b7f4e487b7100000000000000000000000000000000000000000000000000000000600052604160045260246000fd5b7f4e487b7100000000000000000000000000000000000000000000000000000000600052602260045260246000fd5b600060028204905060018216806200012c57607f821691505b602082108103620001425762000141620000e4565b5b50919050565b60008190508160005260206000209050919050565b60006020601f8301049050919050565b600082821b905092915050565b600060088302620001ac7fffffffffffffffffffffffffffffffffffffffffffffffffffffffffffffffff826200016d565b620001b886836200016d565b95508019841693508086168417925050509392505050565b6000819050919050565b6000819050919050565b600062000205620001ff620001f984620001d0565b620001da565b620001d0565b9050919050565b6000819050919050565b6200022183620001e4565b6200023962000230826200020c565b8484546200017a565b825550505050565b600090565b6200025062000241565b6200025d81848462000216565b505050565b5b8181101562000285576200027960008262000246565b60018101905062000263565b5050565b601f821115620002d4576200029e8162000148565b620002a9846200015d565b81016020851015620002b9578190505b620002d1620002c8856200015d565b83018262000262565b50505b505050565b600082821c905092915050565b6000620002f960001984600802620002d9565b1980831691505092915050565b6000620003148383620002e6565b9150826002028217905092915050565b6200032f82620000aa565b67ffffffffffffffff8111156200034b576200034a620000b5565b5b62000357825462000113565b6200036482828562000289565b600060209050601f8311600181146200039c576000841562000387578287015190505b62000393858262000306565b86555062000403565b601f198416620003ac8662000148565b60005b82811015620003d657848901518255600182019150602085019450602081019050620003af565b86831015620003f65784890151620003f2601f891682620002e6565b8355505b6001600288020188555050505b505050505050565b61062b806200041b6000396000f3fe608060405234801561001057600080fd5b506004361061007d5760003560e01c80634c7648091161005b5780634c764809146100dc57806352c98689146100e65780636d45e2a5146101025780638f6a861a146101205761007d565b806306fdde03146100825780633f83ea3b146100a057806349574402146100be575b600080fd5b61008a610150565b60405161009791906103a9565b60405180910390f35b6100a86101de565b6040516100b591906103e4565b60405180910390f35b6100c66101e4565b6040516100d391906103e4565b60405180910390f35b6100e4610201565b005b61010060048036038101906100fb919061043e565b610221565b005b61010a6102f3565b60405161011791906103e4565b60405180910390f35b61013a60048036038101906101359190610497565b61030e565b60405161014791906103e4565b60405180910390f35b6002805461015d906104f3565b80601f0160208091040260200160405190810160405280929190818152602001828054610189906104f3565b80156101d65780601f106101ab576101008083540402835291602001916101d6565b820191906000526020600020905b8154815290600101906020018083116101b957829003601f168201915b505050505081565b60015481565b60008060029054906101000a900462ffffff1662ffffff16905090565b6103e86000806101000a81548161ffff021916908361ffff160217905550565b6113888161ffff16111561026a576040517f08c379a000000000000000000000000000000000000000000000000000000000815260040161026190610570565b60405180910390fd5b60008160008054906101000a900461ffff1661028691906105bf565b61ffff1690506113888111156102d357806040517f0f7d41090000000000000000000000000000000000000000000000000000000081526004016102ca91906103e4565b60405180910390fd5b806000806101000a81548161ffff021916908361ffff1602179055505050565b60008060009054906101000a900461ffff1661ffff16905090565b600081549050919050565b600081519050919050565b600082825260208201905092915050565b60005b83811015610353578082015181840152602081019050610338565b60008484015250505050565b6000601f19601f8301169050919050565b600061037b82610319565b6103858185610324565b9350610395818560208601610335565b61039e8161035f565b840191505092915050565b600060208201905081810360008301526103c38184610370565b905092915050565b6000819050919050565b6103de816103cb565b82525050565b60006020820190506103f960008301846103d5565b92915050565b600080fd5b600061ffff82169050919050565b61041b81610404565b811461042657600080fd5b50565b60008135905061043881610412565b92915050565b600060208284031215610454576104536103ff565b5b600061046284828501610429565b91505092915050565b610474816103cb565b811461047f57600080fd5b50565b6000813590506104918161046b565b92915050565b6000602082840312156104ad576104ac6103ff565b5b60006104bb84828501610482565b91505092915050565b7f4e487b7100000000000000000000000000000000000000000000000000000000600052602260045260246000fd5b6000600282049050600182168061050b57607f821691505b60208210810361051e5761051d6104c4565b5b50919050565b7f546f6f206d616e79207368617265730000000000000000000000000000000000600082015250565b600061055a600f83610324565b915061056582610524565b602082019050919050565b600060208201905081810360008301526105898161054d565b9050919050565b7f4e487b7100000000000000000000000000000000000000000000000000000000600052601160045260246000fd5b60006105ca82610404565b91506105d583610404565b9250828201905061ffff8111156105ef576105ee610590565b5b9291505056fea264697066735822122055ad2d7fda571876b7143d23f0d0e0fefe22e10ad7b8153300b342a6b501a47a64736f6c63430008110033","linkReferences":{}},"methodIdentifiers":{"checkForPacking(uint256)":"8f6a861a","debugResetShares()":"4c764809","grantShares(uint16)":"52c98689","idNumber()":"3f83ea3b","name()":"06fdde03","viewSalary()":"49574402","viewShares()":"6d45e2a5"},"id":2}