{"abi":[{"type":"constructor","inputs":[{"name":"_idNumber","type":"uint256","internalType":"uint256"},{"name":"_managerId","type":"uint256","internalType":"uint256"},{"name":"_annualSalary","type":"uint256","internalType":"uint256"}],"stateMutability":"nonpayable"},{"type":"function","name":"addReport","inputs":[{"name":"_employeeId","type":"uint256","internalType":"uint256"}],"outputs":[],"stateMutability":"nonpayable"},{"type":"function","name":"annualSalary","inputs":[],"outputs":[{"name":"","type":"uint256","internalType":"uint256"}],"stateMutability":"view"},{"type":"function","name":"employeeIds","inputs":[{"name":"","type":"uint256","internalType":"uint256"}],"outputs":[{"name":"","type":"uint256","internalType":"uint256"}],"stateMutability":"view"},{"type":"function","name":"getAnnualCost","inputs":[],"outputs":[{"name":"","type":"uint256","internalType":"uint256"}],"stateMutability":"view"},{"type":"function","name":"idNumber","inputs":[],"outputs":[{"name":"","type":"uint256","internalType":"uint256"}],"stateMutability":"view"},{"type":"function","name":"managerId","inputs":[],"outputs":[{"name":"","type":"uint256","internalType":"uint256"}],"stateMutability":"view"},{"type":"function","name":"resetReports","inputs":[],"outputs":[],"stateMutability":"nonpayable"}],"bytecode":{"object":"0x6080604052348015600e575f5ffd5b506040516103913803806103918339818101604052810190602e91906085565b8282828282815f819055508060018190555050508060028190555050505050505060cc565b5f5ffd5b5f819050919050565b6067816057565b81146070575f5ffd5b50565b5f81519050607f816060565b92915050565b5f5f5f6060848603121560995760986053565b5b5f60a4868287016073565b935050602060b3868287016073565b925050604060c2868287016073565b9150509250925092565b6102b8806100d95f395ff3fe608060405234801561000f575f5ffd5b506004361061007b575f3560e01c80637e397536116100595780637e397536146100d957806386e73dc314610109578063a596d3c814610125578063f5895a0a1461012f5761007b565b80633f83ea3b1461007f57806350dca6ab1461009d5780635cdee0c0146100bb575b5f5ffd5b61008761014d565b6040516100949190610210565b60405180910390f35b6100a5610152565b6040516100b29190610210565b60405180910390f35b6100c3610158565b6040516100d09190610210565b60405180910390f35b6100f360048036038101906100ee9190610257565b610161565b6040516101009190610210565b60405180910390f35b610123600480360381019061011e9190610257565b610181565b005b61012d6101aa565b005b6101376101b9565b6040516101449190610210565b60405180910390f35b5f5481565b60025481565b5f600254905090565b60038181548110610170575f80fd5b905f5260205f20015f915090505481565b600381908060018154018082558091505060019003905f5260205f20015f909190919091505550565b60035f6101b791906101bf565b565b60015481565b5080545f8255905f5260205f20908101906101da91906101dd565b50565b5b808211156101f4575f815f9055506001016101de565b5090565b5f819050919050565b61020a816101f8565b82525050565b5f6020820190506102235f830184610201565b92915050565b5f5ffd5b610236816101f8565b8114610240575f5ffd5b50565b5f813590506102518161022d565b92915050565b5f6020828403121561026c5761026b610229565b5b5f61027984828501610243565b9150509291505056fea2646970667358221220b8b8d455edf108c48f1ecf33e9b31bb7c5da54ae1193763f0272d3070daa21dc64736f6c634300081e0033","linkReferences":{}},"methodIdentifiers":{"addReport(uint256)":"86e73dc3","annualSalary()":"50dca6ab","employeeIds(uint256)":"7e397536","getAnnualCost()":"5cdee0c0","idNumber()":"3f83ea3b","managerId()":"f5895a0a","resetReports()":"a596d3c8"},"id":33}