{"abi":[{"type":"function","name":"addToArr","inputs":[{"name":"_num","type":"uint256","internalType":"uint256"}],"outputs":[],"stateMutability":"nonpayable"},{"type":"function","name":"applyModifier","inputs":[{"name":"_base","type":"uint256","internalType":"uint256"},{"name":"_modifier","type":"int256","internalType":"int256"}],"outputs":[{"name":"","type":"uint256","internalType":"uint256"}],"stateMutability":"pure"},{"type":"function","name":"diffWithNeighbor","inputs":[{"name":"_a","type":"uint256","internalType":"uint256"},{"name":"_b","type":"uint256","internalType":"uint256"},{"name":"_c","type":"uint256","internalType":"uint256"},{"name":"_d","type":"uint256","internalType":"uint256"}],"outputs":[{"name":"","type":"uint256[]","internalType":"uint256[]"}],"stateMutability":"pure"},{"type":"function","name":"getArr","inputs":[],"outputs":[{"name":"","type":"uint256[]","internalType":"uint256[]"}],"stateMutability":"view"},{"type":"function","name":"popWithReturn","inputs":[],"outputs":[{"name":"","type":"uint256","internalType":"uint256"}],"stateMutability":"nonpayable"},{"type":"function","name":"resetArr","inputs":[],"outputs":[],"stateMutability":"nonpayable"}],"bytecode":{"object":"0x6080604052348015600e575f5ffd5b506108368061001c5f395ff3fe608060405234801561000f575f5ffd5b5060043610610060575f3560e01c80631abe2ac214610064578063294323141461008257806364529db5146100b2578063e1819ff9146100bc578063f74e51ea146100d8578063fb8cbced14610108575b5f5ffd5b61006c610126565b604051610079919061040a565b60405180910390f35b61009c60048036038101906100979190610451565b6101c7565b6040516100a9919061056c565b60405180910390f35b6100ba6102f0565b005b6100d660048036038101906100d1919061058c565b6102fe565b005b6100f260048036038101906100ed91906105ea565b610326565b6040516100ff919061040a565b60405180910390f35b610110610364565b60405161011d919061056c565b60405180910390f35b5f5f5f805490501161016d576040517f08c379a000000000000000000000000000000000000000000000000000000000815260040161016490610682565b60405180910390fd5b5f5f60015f8054905061018091906106cd565b8154811061019157610190610700565b5b905f5260205f20015490505f8054806101ad576101ac61072d565b5b600190038181905f5260205f20015f905590558091505090565b60605f600367ffffffffffffffff8111156101e5576101e461075a565b5b6040519080825280602002602001820160405280156102135781602001602082028036833780820191505090505b50905084861161022e57858561022991906106cd565b61023b565b848661023a91906106cd565b5b815f8151811061024e5761024d610700565b5b60200260200101818152505083851161027257848461026d91906106cd565b61027f565b838561027e91906106cd565b5b8160018151811061029357610292610700565b5b6020026020010181815250508284116102b75783836102b291906106cd565b6102c4565b82846102c391906106cd565b5b816002815181106102d8576102d7610700565b5b60200260200101818152505080915050949350505050565b5f5f6102fc91906103b9565b565b5f81908060018154018082558091505060019003905f5260205f20015f909190919091505550565b5f5f821261034157818361033a9190610787565b905061035e565b5f8261034c906107ba565b9050808461035a91906106cd565b9150505b92915050565b60605f8054806020026020016040519081016040528092919081815260200182805480156103af57602002820191905f5260205f20905b81548152602001906001019080831161039b575b5050505050905090565b5080545f8255905f5260205f20908101906103d491906103d7565b50565b5b808211156103ee575f815f9055506001016103d8565b5090565b5f819050919050565b610404816103f2565b82525050565b5f60208201905061041d5f8301846103fb565b92915050565b5f5ffd5b610430816103f2565b811461043a575f5ffd5b50565b5f8135905061044b81610427565b92915050565b5f5f5f5f6080858703121561046957610468610423565b5b5f6104768782880161043d565b94505060206104878782880161043d565b93505060406104988782880161043d565b92505060606104a98782880161043d565b91505092959194509250565b5f81519050919050565b5f82825260208201905092915050565b5f819050602082019050919050565b6104e7816103f2565b82525050565b5f6104f883836104de565b60208301905092915050565b5f602082019050919050565b5f61051a826104b5565b61052481856104bf565b935061052f836104cf565b805f5b8381101561055f57815161054688826104ed565b975061055183610504565b925050600181019050610532565b5085935050505092915050565b5f6020820190508181035f8301526105848184610510565b905092915050565b5f602082840312156105a1576105a0610423565b5b5f6105ae8482850161043d565b91505092915050565b5f819050919050565b6105c9816105b7565b81146105d3575f5ffd5b50565b5f813590506105e4816105c0565b92915050565b5f5f60408385031215610600576105ff610423565b5b5f61060d8582860161043d565b925050602061061e858286016105d6565b9150509250929050565b5f82825260208201905092915050565b7f417272617920697320656d7074790000000000000000000000000000000000005f82015250565b5f61066c600e83610628565b915061067782610638565b602082019050919050565b5f6020820190508181035f83015261069981610660565b9050919050565b7f4e487b71000000000000000000000000000000000000000000000000000000005f52601160045260245ffd5b5f6106d7826103f2565b91506106e2836103f2565b92508282039050818111156106fa576106f96106a0565b5b92915050565b7f4e487b71000000000000000000000000000000000000000000000000000000005f52603260045260245ffd5b7f4e487b71000000000000000000000000000000000000000000000000000000005f52603160045260245ffd5b7f4e487b71000000000000000000000000000000000000000000000000000000005f52604160045260245ffd5b5f610791826103f2565b915061079c836103f2565b92508282019050808211156107b4576107b36106a0565b5b92915050565b5f6107c4826105b7565b91507f800000000000000000000000000000000000000000000000000000000000000082036107f6576107f56106a0565b5b815f03905091905056fea2646970667358221220ac062086fe157a51cb51c23a72259b7d3a05f9d32639ba53ce3da27c20e219a064736f6c634300081e0033","linkReferences":{}},"methodIdentifiers":{"addToArr(uint256)":"e1819ff9","applyModifier(uint256,int256)":"f74e51ea","diffWithNeighbor(uint256,uint256,uint256,uint256)":"29432314","getArr()":"fb8cbced","popWithReturn()":"1abe2ac2","resetArr()":"64529db5"},"id":28}