{"abi":[{"type":"constructor","inputs":[],"stateMutability":"nonpayable"},{"type":"function","name":"addRecord","inputs":[{"name":"_albumName","type":"string","internalType":"string"}],"outputs":[],"stateMutability":"nonpayable"},{"type":"function","name":"approvedRecords","inputs":[{"name":"","type":"string","internalType":"string"}],"outputs":[{"name":"","type":"bool","internalType":"bool"}],"stateMutability":"view"},{"type":"function","name":"getApprovedRecords","inputs":[],"outputs":[{"name":"","type":"string[]","internalType":"string[]"}],"stateMutability":"view"},{"type":"function","name":"getUserFavorites","inputs":[{"name":"_user","type":"address","internalType":"address"}],"outputs":[{"name":"","type":"string[]","internalType":"string[]"}],"stateMutability":"view"},{"type":"function","name":"resetUserFavorites","inputs":[],"outputs":[],"stateMutability":"nonpayable"},{"type":"function","name":"userFavorites","inputs":[{"name":"","type":"address","internalType":"address"},{"name":"","type":"string","internalType":"string"}],"outputs":[{"name":"","type":"bool","internalType":"bool"}],"stateMutability":"view"},{"type":"error","name":"NotApproved","inputs":[{"name":"albumName","type":"string","internalType":"string"}]}],"bytecode":{"object":"0x608060405234801561000f575f5ffd5b505f6040518061012001604052806040518060400160405280600881526020017f546872696c6c657200000000000000000000000000000000000000000000000081525081526020016040518060400160405280600d81526020017f4261636b20696e20426c61636b0000000000000000000000000000000000000081525081526020016040518060400160405280600d81526020017f54686520426f647967756172640000000000000000000000000000000000000081525081526020016040518060400160405280601981526020017f546865204461726b2053696465206f6620746865204d6f6f6e0000000000000081525081526020016040518060400160405280601f81526020017f546865697220477265617465737420486974732028313937312d31393735290081525081526020016040518060400160405280601081526020017f486f74656c2043616c69666f726e69610000000000000000000000000000000081525081526020016040518060400160405280600c81526020017f436f6d65204f6e204f766572000000000000000000000000000000000000000081525081526020016040518060400160405280600781526020017f52756d6f7572730000000000000000000000000000000000000000000000000081525081526020016040518060400160405280601481526020017f5361747572646179204e6967687420466576657200000000000000000000000081525081525090505f5f90505b60098110156102e05760015f838360098110610254576102536102e7565b5b60200201516040516102669190610366565b90815260200160405180910390205f6101000a81548160ff021916908315150217905550600282826009811061029f5761029e6102e7565b5b6020020151908060018154018082558091505060019003905f5260205f20015f9091909190915090816102d291906105af565b508080600101915050610235565b505061067e565b7f4e487b71000000000000000000000000000000000000000000000000000000005f52603260045260245ffd5b5f81519050919050565b5f81905092915050565b8281835e5f83830152505050565b5f61034082610314565b61034a818561031e565b935061035a818560208601610328565b80840191505092915050565b5f6103718284610336565b915081905092915050565b7f4e487b71000000000000000000000000000000000000000000000000000000005f52604160045260245ffd5b7f4e487b71000000000000000000000000000000000000000000000000000000005f52602260045260245ffd5b5f60028204905060018216806103ed57607f821691505b602082108103610400576103ff6103a9565b5b50919050565b5f819050815f5260205f209050919050565b5f6020601f8301049050919050565b5f82821b905092915050565b5f600883026104627fffffffffffffffffffffffffffffffffffffffffffffffffffffffffffffffff82610427565b61046c8683610427565b95508019841693508086168417925050509392505050565b5f819050919050565b5f819050919050565b5f6104b06104ab6104a684610484565b61048d565b610484565b9050919050565b5f819050919050565b6104c983610496565b6104dd6104d5826104b7565b848454610433565b825550505050565b5f5f905090565b6104f46104e5565b6104ff8184846104c0565b505050565b5b81811015610522576105175f826104ec565b600181019050610505565b5050565b601f8211156105675761053881610406565b61054184610418565b81016020851015610550578190505b61056461055c85610418565b830182610504565b50505b505050565b5f82821c905092915050565b5f6105875f198460080261056c565b1980831691505092915050565b5f61059f8383610578565b9150826002028217905092915050565b6105b882610314565b67ffffffffffffffff8111156105d1576105d061037c565b5b6105db82546103d6565b6105e6828285610526565b5f60209050601f831160018114610617575f8415610605578287015190505b61060f8582610594565b865550610676565b601f19841661062586610406565b5f5b8281101561064c57848901518255600182019150602085019450602081019050610627565b868310156106695784890151610665601f891682610578565b8355505b6001600288020188555050505b505050505050565b610faf8061068b5f395ff3fe608060405234801561000f575f5ffd5b5060043610610060575f3560e01c80631cf0830b14610064578063837f887814610082578063b374ac591461008c578063c75c333c146100bc578063c7853148146100ec578063d81aa8c41461011c575b5f5ffd5b61006c610138565b6040516100799190610909565b60405180910390f35b61008a61020c565b005b6100a660048036038101906100a19190610a66565b610408565b6040516100b39190610ac7565b60405180910390f35b6100d660048036038101906100d19190610b3a565b61043c565b6040516100e39190610ac7565b60405180910390f35b61010660048036038101906101019190610b94565b61047e565b6040516101139190610909565b60405180910390f35b61013660048036038101906101319190610a66565b61058f565b005b60606002805480602002602001604051908101604052809291908181526020015f905b82821015610203578382905f5260205f2001805461017890610bec565b80601f01602080910402602001604051908101604052809291908181526020018280546101a490610bec565b80156101ef5780601f106101c6576101008083540402835291602001916101ef565b820191905f5260205f20905b8154815290600101906020018083116101d257829003601f168201915b50505050508152602001906001019061015b565b50505050905090565b5f60035f3373ffffffffffffffffffffffffffffffffffffffff1673ffffffffffffffffffffffffffffffffffffffff1681526020019081526020015f20805480602002602001604051908101604052809291908181526020015f905b82821015610311578382905f5260205f2001805461028690610bec565b80601f01602080910402602001604051908101604052809291908181526020018280546102b290610bec565b80156102fd5780601f106102d4576101008083540402835291602001916102fd565b820191905f5260205f20905b8154815290600101906020018083116102e057829003601f168201915b505050505081526020019060010190610269565b5050505090505f5f90505b81518110156103bc575f60015f3373ffffffffffffffffffffffffffffffffffffffff1673ffffffffffffffffffffffffffffffffffffffff1681526020019081526020015f2083838151811061037657610375610c1c565b5b602002602001015160405161038b9190610c83565b90815260200160405180910390205f6101000a81548160ff021916908315150217905550808060010191505061031c565b5060035f3373ffffffffffffffffffffffffffffffffffffffff1673ffffffffffffffffffffffffffffffffffffffff1681526020019081526020015f205f6104059190610745565b50565b5f818051602081018201805184825260208301602085012081835280955050505050505f915054906101000a900460ff1681565b6001602052815f5260405f20818051602081018201805184825260208301602085012081835280955050505050505f915091509054906101000a900460ff1681565b606060035f8373ffffffffffffffffffffffffffffffffffffffff1673ffffffffffffffffffffffffffffffffffffffff1681526020019081526020015f20805480602002602001604051908101604052809291908181526020015f905b82821015610584578382905f5260205f200180546104f990610bec565b80601f016020809104026020016040519081016040528092919081815260200182805461052590610bec565b80156105705780601f1061054757610100808354040283529160200191610570565b820191905f5260205f20905b81548152906001019060200180831161055357829003601f168201915b5050505050815260200190600101906104dc565b505050509050919050565b5f8160405161059e9190610c83565b90815260200160405180910390205f9054906101000a900460ff166105fa57806040517f4f0ffc1b0000000000000000000000000000000000000000000000000000000081526004016105f19190610ce1565b60405180910390fd5b60015f3373ffffffffffffffffffffffffffffffffffffffff1673ffffffffffffffffffffffffffffffffffffffff1681526020019081526020015f20816040516106459190610c83565b90815260200160405180910390205f9054906101000a900460ff16610742576001805f3373ffffffffffffffffffffffffffffffffffffffff1673ffffffffffffffffffffffffffffffffffffffff1681526020019081526020015f20826040516106b09190610c83565b90815260200160405180910390205f6101000a81548160ff02191690831515021790555060035f3373ffffffffffffffffffffffffffffffffffffffff1673ffffffffffffffffffffffffffffffffffffffff1681526020019081526020015f2081908060018154018082558091505060019003905f5260205f20015f9091909190915090816107409190610eaa565b505b50565b5080545f8255905f5260205f20908101906107609190610763565b50565b5b80821115610782575f81816107799190610786565b50600101610764565b5090565b50805461079290610bec565b5f825580601f106107a357506107c0565b601f0160209004905f5260205f20908101906107bf91906107c3565b5b50565b5b808211156107da575f815f9055506001016107c4565b5090565b5f81519050919050565b5f82825260208201905092915050565b5f819050602082019050919050565b5f81519050919050565b5f82825260208201905092915050565b8281835e5f83830152505050565b5f601f19601f8301169050919050565b5f61084982610807565b6108538185610811565b9350610863818560208601610821565b61086c8161082f565b840191505092915050565b5f610882838361083f565b905092915050565b5f602082019050919050565b5f6108a0826107de565b6108aa81856107e8565b9350836020820285016108bc856107f8565b805f5b858110156108f757848403895281516108d88582610877565b94506108e38361088a565b925060208a019950506001810190506108bf565b50829750879550505050505092915050565b5f6020820190508181035f8301526109218184610896565b905092915050565b5f604051905090565b5f5ffd5b5f5ffd5b5f5ffd5b5f5ffd5b7f4e487b71000000000000000000000000000000000000000000000000000000005f52604160045260245ffd5b6109788261082f565b810181811067ffffffffffffffff8211171561099757610996610942565b5b80604052505050565b5f6109a9610929565b90506109b5828261096f565b919050565b5f67ffffffffffffffff8211156109d4576109d3610942565b5b6109dd8261082f565b9050602081019050919050565b828183375f83830152505050565b5f610a0a610a05846109ba565b6109a0565b905082815260208101848484011115610a2657610a2561093e565b5b610a318482856109ea565b509392505050565b5f82601f830112610a4d57610a4c61093a565b5b8135610a5d8482602086016109f8565b91505092915050565b5f60208284031215610a7b57610a7a610932565b5b5f82013567ffffffffffffffff811115610a9857610a97610936565b5b610aa484828501610a39565b91505092915050565b5f8115159050919050565b610ac181610aad565b82525050565b5f602082019050610ada5f830184610ab8565b92915050565b5f73ffffffffffffffffffffffffffffffffffffffff82169050919050565b5f610b0982610ae0565b9050919050565b610b1981610aff565b8114610b23575f5ffd5b50565b5f81359050610b3481610b10565b92915050565b5f5f60408385031215610b5057610b4f610932565b5b5f610b5d85828601610b26565b925050602083013567ffffffffffffffff811115610b7e57610b7d610936565b5b610b8a85828601610a39565b9150509250929050565b5f60208284031215610ba957610ba8610932565b5b5f610bb684828501610b26565b91505092915050565b7f4e487b71000000000000000000000000000000000000000000000000000000005f52602260045260245ffd5b5f6002820490506001821680610c0357607f821691505b602082108103610c1657610c15610bbf565b5b50919050565b7f4e487b71000000000000000000000000000000000000000000000000000000005f52603260045260245ffd5b5f81905092915050565b5f610c5d82610807565b610c678185610c49565b9350610c77818560208601610821565b80840191505092915050565b5f610c8e8284610c53565b915081905092915050565b5f82825260208201905092915050565b5f610cb382610807565b610cbd8185610c99565b9350610ccd818560208601610821565b610cd68161082f565b840191505092915050565b5f6020820190508181035f830152610cf98184610ca9565b905092915050565b5f819050815f5260205f209050919050565b5f6020601f8301049050919050565b5f82821b905092915050565b5f60088302610d5d7fffffffffffffffffffffffffffffffffffffffffffffffffffffffffffffffff82610d22565b610d678683610d22565b95508019841693508086168417925050509392505050565b5f819050919050565b5f819050919050565b5f610dab610da6610da184610d7f565b610d88565b610d7f565b9050919050565b5f819050919050565b610dc483610d91565b610dd8610dd082610db2565b848454610d2e565b825550505050565b5f5f905090565b610def610de0565b610dfa818484610dbb565b505050565b5b81811015610e1d57610e125f82610de7565b600181019050610e00565b5050565b601f821115610e6257610e3381610d01565b610e3c84610d13565b81016020851015610e4b578190505b610e5f610e5785610d13565b830182610dff565b50505b505050565b5f82821c905092915050565b5f610e825f1984600802610e67565b1980831691505092915050565b5f610e9a8383610e73565b9150826002028217905092915050565b610eb382610807565b67ffffffffffffffff811115610ecc57610ecb610942565b5b610ed68254610bec565b610ee1828285610e21565b5f60209050601f831160018114610f12575f8415610f00578287015190505b610f0a8582610e8f565b865550610f71565b601f198416610f2086610d01565b5f5b82811015610f4757848901518255600182019150602085019450602081019050610f22565b86831015610f645784890151610f60601f891682610e73565b8355505b6001600288020188555050505b50505050505056fea2646970667358221220d76d86bb4a93e361547ae5978ff5cafd6ea71d9703faa313da0ab60aee3526d464736f6c634300081e0033","linkReferences":{}},"methodIdentifiers":{"addRecord(string)":"d81aa8c4","approvedRecords(string)":"b374ac59","getApprovedRecords()":"1cf0830b","getUserFavorites(address)":"c7853148","resetUserFavorites()":"837f8878","userFavorites(address,string)":"c75c333c"},"id":29}