{"abi":[{"type":"function","name":"addCar","inputs":[{"name":"_make","type":"string","internalType":"string"},{"name":"_model","type":"string","internalType":"string"},{"name":"_color","type":"string","internalType":"string"},{"name":"_numberOfDoors","type":"uint256","internalType":"uint256"}],"outputs":[],"stateMutability":"nonpayable"},{"type":"function","name":"garage","inputs":[{"name":"","type":"address","internalType":"address"},{"name":"","type":"uint256","internalType":"uint256"}],"outputs":[{"name":"make","type":"string","internalType":"string"},{"name":"model","type":"string","internalType":"string"},{"name":"color","type":"string","internalType":"string"},{"name":"numberOfDoors","type":"uint256","internalType":"uint256"}],"stateMutability":"view"},{"type":"function","name":"getMyCars","inputs":[],"outputs":[{"name":"","type":"tuple[]","internalType":"struct GarageManager.Car[]","components":[{"name":"make","type":"string","internalType":"string"},{"name":"model","type":"string","internalType":"string"},{"name":"color","type":"string","internalType":"string"},{"name":"numberOfDoors","type":"uint256","internalType":"uint256"}]}],"stateMutability":"view"},{"type":"function","name":"getUserCars","inputs":[{"name":"_user","type":"address","internalType":"address"}],"outputs":[{"name":"","type":"tuple[]","internalType":"struct GarageManager.Car[]","components":[{"name":"make","type":"string","internalType":"string"},{"name":"model","type":"string","internalType":"string"},{"name":"color","type":"string","internalType":"string"},{"name":"numberOfDoors","type":"uint256","internalType":"uint256"}]}],"stateMutability":"view"},{"type":"function","name":"resetMyGarage","inputs":[],"outputs":[],"stateMutability":"nonpayable"},{"type":"function","name":"updateCar","inputs":[{"name":"_index","type":"uint256","internalType":"uint256"},{"name":"_make","type":"string","internalType":"string"},{"name":"_model","type":"string","internalType":"string"},{"name":"_color","type":"string","internalType":"string"},{"name":"_numberOfDoors","type":"uint256","internalType":"uint256"}],"outputs":[],"stateMutability":"nonpayable"},{"type":"error","name":"BadCarIndex","inputs":[{"name":"index","type":"uint256","internalType":"uint256"}]}],"bytecode":{"object":"0x6080604052348015600e575f5ffd5b5061144b8061001c5f395ff3fe608060405234801561000f575f5ffd5b5060043610610060575f3560e01c80632698286c14610064578063341fa05d146100945780633ecd55a9146100b25780634cd1ed3d146100e55780636dcb789614610101578063d2d50bd81461010b575b5f5ffd5b61007e60048036038101906100799190610b41565b610127565b60405161008b9190610d1d565b60405180910390f35b61009c610378565b6040516100a99190610d1d565b60405180910390f35b6100cc60048036038101906100c79190610d67565b6105c7565b6040516100dc9493929190610dfc565b60405180910390f35b6100ff60048036038101906100fa9190610f80565b61079e565b005b6101096108f0565b005b6101256004803603810190610120919061104b565b610939565b005b60605f5f8373ffffffffffffffffffffffffffffffffffffffff1673ffffffffffffffffffffffffffffffffffffffff1681526020019081526020015f20805480602002602001604051908101604052809291908181526020015f905b8282101561036d578382905f5260205f2090600402016040518060800160405290815f820180546101b490611130565b80601f01602080910402602001604051908101604052809291908181526020018280546101e090611130565b801561022b5780601f106102025761010080835404028352916020019161022b565b820191905f5260205f20905b81548152906001019060200180831161020e57829003601f168201915b5050505050815260200160018201805461024490611130565b80601f016020809104026020016040519081016040528092919081815260200182805461027090611130565b80156102bb5780601f10610292576101008083540402835291602001916102bb565b820191905f5260205f20905b81548152906001019060200180831161029e57829003601f168201915b505050505081526020016002820180546102d490611130565b80601f016020809104026020016040519081016040528092919081815260200182805461030090611130565b801561034b5780601f106103225761010080835404028352916020019161034b565b820191905f5260205f20905b81548152906001019060200180831161032e57829003601f168201915b5050505050815260200160038201548152505081526020019060010190610184565b505050509050919050565b60605f5f3373ffffffffffffffffffffffffffffffffffffffff1673ffffffffffffffffffffffffffffffffffffffff1681526020019081526020015f20805480602002602001604051908101604052809291908181526020015f905b828210156105be578382905f5260205f2090600402016040518060800160405290815f8201805461040590611130565b80601f016020809104026020016040519081016040528092919081815260200182805461043190611130565b801561047c5780601f106104535761010080835404028352916020019161047c565b820191905f5260205f20905b81548152906001019060200180831161045f57829003601f168201915b5050505050815260200160018201805461049590611130565b80601f01602080910402602001604051908101604052809291908181526020018280546104c190611130565b801561050c5780601f106104e35761010080835404028352916020019161050c565b820191905f5260205f20905b8154815290600101906020018083116104ef57829003601f168201915b5050505050815260200160028201805461052590611130565b80601f016020809104026020016040519081016040528092919081815260200182805461055190611130565b801561059c5780601f106105735761010080835404028352916020019161059c565b820191905f5260205f20905b81548152906001019060200180831161057f57829003601f168201915b50505050508152602001600382015481525050815260200190600101906103d5565b50505050905090565b5f602052815f5260405f2081815481106105df575f80fd5b905f5260205f2090600402015f9150915050805f0180546105ff90611130565b80601f016020809104026020016040519081016040528092919081815260200182805461062b90611130565b80156106765780601f1061064d57610100808354040283529160200191610676565b820191905f5260205f20905b81548152906001019060200180831161065957829003601f168201915b50505050509080600101805461068b90611130565b80601f01602080910402602001604051908101604052809291908181526020018280546106b790611130565b80156107025780601f106106d957610100808354040283529160200191610702565b820191905f5260205f20905b8154815290600101906020018083116106e557829003601f168201915b50505050509080600201805461071790611130565b80601f016020809104026020016040519081016040528092919081815260200182805461074390611130565b801561078e5780601f106107655761010080835404028352916020019161078e565b820191905f5260205f20905b81548152906001019060200180831161077157829003601f168201915b5050505050908060030154905084565b5f5f3373ffffffffffffffffffffffffffffffffffffffff1673ffffffffffffffffffffffffffffffffffffffff1681526020019081526020015f2080549050851061082157846040517f40c901ce0000000000000000000000000000000000000000000000000000000081526004016108189190611160565b60405180910390fd5b6040518060800160405280858152602001848152602001838152602001828152505f5f3373ffffffffffffffffffffffffffffffffffffffff1673ffffffffffffffffffffffffffffffffffffffff1681526020019081526020015f2086815481106108905761088f611179565b5b905f5260205f2090600402015f820151815f0190816108af9190611346565b5060208201518160010190816108c59190611346565b5060408201518160020190816108db9190611346565b50606082015181600301559050505050505050565b5f5f3373ffffffffffffffffffffffffffffffffffffffff1673ffffffffffffffffffffffffffffffffffffffff1681526020019081526020015f205f6109379190610a13565b565b5f60405180608001604052808681526020018581526020018481526020018381525090505f5f3373ffffffffffffffffffffffffffffffffffffffff1673ffffffffffffffffffffffffffffffffffffffff1681526020019081526020015f2081908060018154018082558091505060019003905f5260205f2090600402015f909190919091505f820151815f0190816109d39190611346565b5060208201518160010190816109e99190611346565b5060408201518160020190816109ff9190611346565b506060820151816003015550505050505050565b5080545f8255600402905f5260205f2090810190610a319190610a34565b50565b5b80821115610a7a575f5f82015f610a4c9190610a7e565b600182015f610a5b9190610a7e565b600282015f610a6a9190610a7e565b600382015f905550600401610a35565b5090565b508054610a8a90611130565b5f825580601f10610a9b5750610ab8565b601f0160209004905f5260205f2090810190610ab79190610abb565b5b50565b5b80821115610ad2575f815f905550600101610abc565b5090565b5f604051905090565b5f5ffd5b5f5ffd5b5f73ffffffffffffffffffffffffffffffffffffffff82169050919050565b5f610b1082610ae7565b9050919050565b610b2081610b06565b8114610b2a575f5ffd5b50565b5f81359050610b3b81610b17565b92915050565b5f60208284031215610b5657610b55610adf565b5b5f610b6384828501610b2d565b91505092915050565b5f81519050919050565b5f82825260208201905092915050565b5f819050602082019050919050565b5f81519050919050565b5f82825260208201905092915050565b8281835e5f83830152505050565b5f601f19601f8301169050919050565b5f610bd782610b95565b610be18185610b9f565b9350610bf1818560208601610baf565b610bfa81610bbd565b840191505092915050565b5f819050919050565b610c1781610c05565b82525050565b5f608083015f8301518482035f860152610c378282610bcd565b91505060208301518482036020860152610c518282610bcd565b91505060408301518482036040860152610c6b8282610bcd565b9150506060830151610c806060860182610c0e565b508091505092915050565b5f610c968383610c1d565b905092915050565b5f602082019050919050565b5f610cb482610b6c565b610cbe8185610b76565b935083602082028501610cd085610b86565b805f5b85811015610d0b5784840389528151610cec8582610c8b565b9450610cf783610c9e565b925060208a01995050600181019050610cd3565b50829750879550505050505092915050565b5f6020820190508181035f830152610d358184610caa565b905092915050565b610d4681610c05565b8114610d50575f5ffd5b50565b5f81359050610d6181610d3d565b92915050565b5f5f60408385031215610d7d57610d7c610adf565b5b5f610d8a85828601610b2d565b9250506020610d9b85828601610d53565b9150509250929050565b5f82825260208201905092915050565b5f610dbf82610b95565b610dc98185610da5565b9350610dd9818560208601610baf565b610de281610bbd565b840191505092915050565b610df681610c05565b82525050565b5f6080820190508181035f830152610e148187610db5565b90508181036020830152610e288186610db5565b90508181036040830152610e3c8185610db5565b9050610e4b6060830184610ded565b95945050505050565b5f5ffd5b5f5ffd5b7f4e487b71000000000000000000000000000000000000000000000000000000005f52604160045260245ffd5b610e9282610bbd565b810181811067ffffffffffffffff82111715610eb157610eb0610e5c565b5b80604052505050565b5f610ec3610ad6565b9050610ecf8282610e89565b919050565b5f67ffffffffffffffff821115610eee57610eed610e5c565b5b610ef782610bbd565b9050602081019050919050565b828183375f83830152505050565b5f610f24610f1f84610ed4565b610eba565b905082815260208101848484011115610f4057610f3f610e58565b5b610f4b848285610f04565b509392505050565b5f82601f830112610f6757610f66610e54565b5b8135610f77848260208601610f12565b91505092915050565b5f5f5f5f5f60a08688031215610f9957610f98610adf565b5b5f610fa688828901610d53565b955050602086013567ffffffffffffffff811115610fc757610fc6610ae3565b5b610fd388828901610f53565b945050604086013567ffffffffffffffff811115610ff457610ff3610ae3565b5b61100088828901610f53565b935050606086013567ffffffffffffffff81111561102157611020610ae3565b5b61102d88828901610f53565b925050608061103e88828901610d53565b9150509295509295909350565b5f5f5f5f6080858703121561106357611062610adf565b5b5f85013567ffffffffffffffff8111156110805761107f610ae3565b5b61108c87828801610f53565b945050602085013567ffffffffffffffff8111156110ad576110ac610ae3565b5b6110b987828801610f53565b935050604085013567ffffffffffffffff8111156110da576110d9610ae3565b5b6110e687828801610f53565b92505060606110f787828801610d53565b91505092959194509250565b7f4e487b71000000000000000000000000000000000000000000000000000000005f52602260045260245ffd5b5f600282049050600182168061114757607f821691505b60208210810361115a57611159611103565b5b50919050565b5f6020820190506111735f830184610ded565b92915050565b7f4e487b71000000000000000000000000000000000000000000000000000000005f52603260045260245ffd5b5f819050815f5260205f209050919050565b5f6020601f8301049050919050565b5f82821b905092915050565b5f600883026112027fffffffffffffffffffffffffffffffffffffffffffffffffffffffffffffffff826111c7565b61120c86836111c7565b95508019841693508086168417925050509392505050565b5f819050919050565b5f61124761124261123d84610c05565b611224565b610c05565b9050919050565b5f819050919050565b6112608361122d565b61127461126c8261124e565b8484546111d3565b825550505050565b5f5f905090565b61128b61127c565b611296818484611257565b505050565b5b818110156112b9576112ae5f82611283565b60018101905061129c565b5050565b601f8211156112fe576112cf816111a6565b6112d8846111b8565b810160208510156112e7578190505b6112fb6112f3856111b8565b83018261129b565b50505b505050565b5f82821c905092915050565b5f61131e5f1984600802611303565b1980831691505092915050565b5f611336838361130f565b9150826002028217905092915050565b61134f82610b95565b67ffffffffffffffff81111561136857611367610e5c565b5b6113728254611130565b61137d8282856112bd565b5f60209050601f8311600181146113ae575f841561139c578287015190505b6113a6858261132b565b86555061140d565b601f1984166113bc866111a6565b5f5b828110156113e3578489015182556001820191506020850194506020810190506113be565b8683101561140057848901516113fc601f89168261130f565b8355505b6001600288020188555050505b50505050505056fea264697066735822122003662d2393179ada889947bbd82f89d9835326df70abc9c8ad2f1004cd91c07164736f6c634300081e0033","linkReferences":{}},"methodIdentifiers":{"addCar(string,string,string,uint256)":"d2d50bd8","garage(address,uint256)":"3ecd55a9","getMyCars()":"341fa05d","getUserCars(address)":"2698286c","resetMyGarage()":"6dcb7896","updateCar(uint256,string,string,string,uint256)":"4cd1ed3d"},"id":30}