{"abi":[{"type":"constructor","inputs":[],"stateMutability":"nonpayable"},{"type":"function","name":"approve","inputs":[{"name":"to","type":"address","internalType":"address"},{"name":"tokenId","type":"uint256","internalType":"uint256"}],"outputs":[],"stateMutability":"nonpayable"},{"type":"function","name":"balanceOf","inputs":[{"name":"owner","type":"address","internalType":"address"}],"outputs":[{"name":"","type":"uint256","internalType":"uint256"}],"stateMutability":"view"},{"type":"function","name":"counter","inputs":[],"outputs":[{"name":"","type":"uint256","internalType":"uint256"}],"stateMutability":"view"},{"type":"function","name":"getApproved","inputs":[{"name":"tokenId","type":"uint256","internalType":"uint256"}],"outputs":[{"name":"","type":"address","internalType":"address"}],"stateMutability":"view"},{"type":"function","name":"getMySharedHaikus","inputs":[],"outputs":[{"name":"","type":"tuple[]","internalType":"struct HaikuNFT.Haiku[]","components":[{"name":"author","type":"address","internalType":"address"},{"name":"line1","type":"string","internalType":"string"},{"name":"line2","type":"string","internalType":"string"},{"name":"line3","type":"string","internalType":"string"}]}],"stateMutability":"view"},{"type":"function","name":"haikus","inputs":[{"name":"","type":"uint256","internalType":"uint256"}],"outputs":[{"name":"author","type":"address","internalType":"address"},{"name":"line1","type":"string","internalType":"string"},{"name":"line2","type":"string","internalType":"string"},{"name":"line3","type":"string","internalType":"string"}],"stateMutability":"view"},{"type":"function","name":"isApprovedForAll","inputs":[{"name":"owner","type":"address","internalType":"address"},{"name":"operator","type":"address","internalType":"address"}],"outputs":[{"name":"","type":"bool","internalType":"bool"}],"stateMutability":"view"},{"type":"function","name":"mintHaiku","inputs":[{"name":"_line1","type":"string","internalType":"string"},{"name":"_line2","type":"string","internalType":"string"},{"name":"_line3","type":"string","internalType":"string"}],"outputs":[],"stateMutability":"nonpayable"},{"type":"function","name":"name","inputs":[],"outputs":[{"name":"","type":"string","internalType":"string"}],"stateMutability":"view"},{"type":"function","name":"ownerOf","inputs":[{"name":"tokenId","type":"uint256","internalType":"uint256"}],"outputs":[{"name":"","type":"address","internalType":"address"}],"stateMutability":"view"},{"type":"function","name":"safeTransferFrom","inputs":[{"name":"from","type":"address","internalType":"address"},{"name":"to","type":"address","internalType":"address"},{"name":"tokenId","type":"uint256","internalType":"uint256"}],"outputs":[],"stateMutability":"nonpayable"},{"type":"function","name":"safeTransferFrom","inputs":[{"name":"from","type":"address","internalType":"address"},{"name":"to","type":"address","internalType":"address"},{"name":"tokenId","type":"uint256","internalType":"uint256"},{"name":"data","type":"bytes","internalType":"bytes"}],"outputs":[],"stateMutability":"nonpayable"},{"type":"function","name":"setApprovalForAll","inputs":[{"name":"operator","type":"address","internalType":"address"},{"name":"approved","type":"bool","internalType":"bool"}],"outputs":[],"stateMutability":"nonpayable"},{"type":"function","name":"shareHaiku","inputs":[{"name":"_to","type":"address","internalType":"address"},{"name":"_id","type":"uint256","internalType":"uint256"}],"outputs":[],"stateMutability":"nonpayable"},{"type":"function","name":"sharedHaikus","inputs":[{"name":"","type":"address","internalType":"address"},{"name":"","type":"uint256","internalType":"uint256"}],"outputs":[{"name":"","type":"uint256","internalType":"uint256"}],"stateMutability":"view"},{"type":"function","name":"supportsInterface","inputs":[{"name":"interfaceId","type":"bytes4","internalType":"bytes4"}],"outputs":[{"name":"","type":"bool","internalType":"bool"}],"stateMutability":"view"},{"type":"function","name":"symbol","inputs":[],"outputs":[{"name":"","type":"string","internalType":"string"}],"stateMutability":"view"},{"type":"function","name":"tokenURI","inputs":[{"name":"tokenId","type":"uint256","internalType":"uint256"}],"outputs":[{"name":"","type":"string","internalType":"string"}],"stateMutability":"view"},{"type":"function","name":"transferFrom","inputs":[{"name":"from","type":"address","internalType":"address"},{"name":"to","type":"address","internalType":"address"},{"name":"tokenId","type":"uint256","internalType":"uint256"}],"outputs":[],"stateMutability":"nonpayable"},{"type":"event","name":"Approval","inputs":[{"name":"owner","type":"address","indexed":true,"internalType":"address"},{"name":"approved","type":"address","indexed":true,"internalType":"address"},{"name":"tokenId","type":"uint256","indexed":true,"internalType":"uint256"}],"anonymous":false},{"type":"event","name":"ApprovalForAll","inputs":[{"name":"owner","type":"address","indexed":true,"internalType":"address"},{"name":"operator","type":"address","indexed":true,"internalType":"address"},{"name":"approved","type":"bool","indexed":false,"internalType":"bool"}],"anonymous":false},{"type":"event","name":"Transfer","inputs":[{"name":"from","type":"address","indexed":true,"internalType":"address"},{"name":"to","type":"address","indexed":true,"internalType":"address"},{"name":"tokenId","type":"uint256","indexed":true,"internalType":"uint256"}],"anonymous":false},{"type":"error","name":"ERC721IncorrectOwner","inputs":[{"name":"sender","type":"address","internalType":"address"},{"name":"tokenId","type":"uint256","internalType":"uint256"},{"name":"owner","type":"address","internalType":"address"}]},{"type":"error","name":"ERC721InsufficientApproval","inputs":[{"name":"operator","type":"address","internalType":"address"},{"name":"tokenId","type":"uint256","internalType":"uint256"}]},{"type":"error","name":"ERC721InvalidApprover","inputs":[{"name":"approver","type":"address","internalType":"address"}]},{"type":"error","name":"ERC721InvalidOperator","inputs":[{"name":"operator","type":"address","internalType":"address"}]},{"type":"error","name":"ERC721InvalidOwner","inputs":[{"name":"owner","type":"address","internalType":"address"}]},{"type":"error","name":"ERC721InvalidReceiver","inputs":[{"name":"receiver","type":"address","internalType":"address"}]},{"type":"error","name":"ERC721InvalidSender","inputs":[{"name":"sender","type":"address","internalType":"address"}]},{"type":"error","name":"ERC721NonexistentToken","inputs":[{"name":"tokenId","type":"uint256","internalType":"uint256"}]},{"type":"error","name":"HaikuNotUnique","inputs":[]},{"type":"error","name":"NoHaikusShared","inputs":[]},{"type":"error","name":"NotYourHaiku","inputs":[{"name":"","type":"uint256","internalType":"uint256"}]}],"bytecode":{"object":"0x60806040526001600855348015610014575f5ffd5b506040518060400160405280600881526020017f4861696b754e46540000000000000000000000000000000000000000000000008152506040518060400160405280600581526020017f4841494b55000000000000000000000000000000000000000000000000000000815250815f908161008f91906103f5565b50806001908161009f91906103f5565b505050600660405180608001604052805f73ffffffffffffffffffffffffffffffffffffffff16815260200160405180602001604052805f815250815260200160405180602001604052805f815250815260200160405180602001604052805f815250815250908060018154018082558091505060019003905f5260205f2090600402015f909190919091505f820151815f015f6101000a81548173ffffffffffffffffffffffffffffffffffffffff021916908373ffffffffffffffffffffffffffffffffffffffff160217905550602082015181600101908161018491906103f5565b50604082015181600201908161019a91906103f5565b5060608201518160030190816101b091906103f5565b5050506104c4565b5f81519050919050565b7f4e487b71000000000000000000000000000000000000000000000000000000005f52604160045260245ffd5b7f4e487b71000000000000000000000000000000000000000000000000000000005f52602260045260245ffd5b5f600282049050600182168061023357607f821691505b602082108103610246576102456101ef565b5b50919050565b5f819050815f5260205f209050919050565b5f6020601f8301049050919050565b5f82821b905092915050565b5f600883026102a87fffffffffffffffffffffffffffffffffffffffffffffffffffffffffffffffff8261026d565b6102b2868361026d565b95508019841693508086168417925050509392505050565b5f819050919050565b5f819050919050565b5f6102f66102f16102ec846102ca565b6102d3565b6102ca565b9050919050565b5f819050919050565b61030f836102dc565b61032361031b826102fd565b848454610279565b825550505050565b5f5f905090565b61033a61032b565b610345818484610306565b505050565b5b818110156103685761035d5f82610332565b60018101905061034b565b5050565b601f8211156103ad5761037e8161024c565b6103878461025e565b81016020851015610396578190505b6103aa6103a28561025e565b83018261034a565b50505b505050565b5f82821c905092915050565b5f6103cd5f19846008026103b2565b1980831691505092915050565b5f6103e583836103be565b9150826002028217905092915050565b6103fe826101b8565b67ffffffffffffffff811115610417576104166101c2565b5b610421825461021c565b61042c82828561036c565b5f60209050601f83116001811461045d575f841561044b578287015190505b61045585826103da565b8655506104bc565b601f19841661046b8661024c565b5f5b828110156104925784890151825560018201915060208501945060208101905061046d565b868310156104af57848901516104ab601f8916826103be565b8355505b6001600288020188555050505b505050505050565b612de1806104d15f395ff3fe608060405234801561000f575f5ffd5b506004361061011f575f3560e01c806361bc221a116100ab57806397afe82d1161006f57806397afe82d1461031a578063a22cb4651461034a578063b88d4fde14610366578063c87b56dd14610382578063e985e9c5146103b25761011f565b806361bc221a1461024b5780636352211e1461026957806370a08231146102995780637cb82b2a146102c957806395d89b41146102fc5761011f565b8063095ea7b3116100f2578063095ea7b3146101bd57806323b872dd146101d9578063350fe165146101f557806342842e0e1461021157806349af5bfe1461022d5761011f565b806301ffc9a71461012357806306fdde0314610153578063081812fc146101715780630884d540146101a1575b5f5ffd5b61013d6004803603810190610138919061202c565b6103e2565b60405161014a9190612071565b60405180910390f35b61015b6104c3565b60405161016891906120fa565b60405180910390f35b61018b6004803603810190610186919061214d565b610552565b60405161019891906121b7565b60405180910390f35b6101bb60048036038101906101b691906121fa565b61056d565b005b6101d760048036038101906101d291906121fa565b61064a565b005b6101f360048036038101906101ee9190612238565b610660565b005b61020f600480360381019061020a91906123b4565b61075f565b005b61022b60048036038101906102269190612238565b6109db565b005b6102356109fa565b60405161024291906125d8565b60405180910390f35b610253610da6565b6040516102609190612607565b60405180910390f35b610283600480360381019061027e919061214d565b610dac565b60405161029091906121b7565b60405180910390f35b6102b360048036038101906102ae9190612620565b610dbd565b6040516102c09190612607565b60405180910390f35b6102e360048036038101906102de919061214d565b610e73565b6040516102f3949392919061264b565b60405180910390f35b61030461105f565b60405161031191906120fa565b60405180910390f35b610334600480360381019061032f91906121fa565b6110ef565b6040516103419190612607565b60405180910390f35b610364600480360381019061035f91906126cd565b61111a565b005b610380600480360381019061037b91906127a9565b611130565b005b61039c6004803603810190610397919061214d565b611155565b6040516103a991906120fa565b60405180910390f35b6103cc60048036038101906103c79190612829565b6111bb565b6040516103d99190612071565b60405180910390f35b5f7f80ac58cd000000000000000000000000000000000000000000000000000000007bffffffffffffffffffffffffffffffffffffffffffffffffffffffff1916827bffffffffffffffffffffffffffffffffffffffffffffffffffffffff191614806104ac57507f5b5e139f000000000000000000000000000000000000000000000000000000007bffffffffffffffffffffffffffffffffffffffffffffffffffffffff1916827bffffffffffffffffffffffffffffffffffffffffffffffffffffffff1916145b806104bc57506104bb82611249565b5b9050919050565b60605f80546104d190612894565b80601f01602080910402602001604051908101604052809291908181526020018280546104fd90612894565b80156105485780601f1061051f57610100808354040283529160200191610548565b820191905f5260205f20905b81548152906001019060200180831161052b57829003601f168201915b5050505050905090565b5f61055c826112b2565b5061056682611338565b9050919050565b3373ffffffffffffffffffffffffffffffffffffffff1661058d82610dac565b73ffffffffffffffffffffffffffffffffffffffff16146105e557806040517f03ce4e320000000000000000000000000000000000000000000000000000000081526004016105dc9190612607565b60405180910390fd5b60075f8373ffffffffffffffffffffffffffffffffffffffff1673ffffffffffffffffffffffffffffffffffffffff1681526020019081526020015f2081908060018154018082558091505060019003905f5260205f20015f90919091909150555050565b61065c8282610657611371565b611378565b5050565b5f73ffffffffffffffffffffffffffffffffffffffff168273ffffffffffffffffffffffffffffffffffffffff16036106d0575f6040517f64a0ae920000000000000000000000000000000000000000000000000000000081526004016106c791906121b7565b60405180910390fd5b5f6106e383836106de611371565b61138a565b90508373ffffffffffffffffffffffffffffffffffffffff168173ffffffffffffffffffffffffffffffffffffffff1614610759578382826040517f64283d7b000000000000000000000000000000000000000000000000000000008152600401610750939291906128c4565b60405180910390fd5b50505050565b60098360405161076f9190612933565b90815260200160405180910390205f9054906101000a900460ff16806107bc57506009826040516107a09190612933565b90815260200160405180910390205f9054906101000a900460ff165b806107ee57506009816040516107d29190612933565b90815260200160405180910390205f9054906101000a900460ff165b15610825576040517f693a889e00000000000000000000000000000000000000000000000000000000815260040160405180910390fd5b60016009846040516108379190612933565b90815260200160405180910390205f6101000a81548160ff021916908315150217905550600160098360405161086d9190612933565b90815260200160405180910390205f6101000a81548160ff02191690831515021790555060016009826040516108a39190612933565b90815260200160405180910390205f6101000a81548160ff0219169083151502179055505f60405180608001604052803373ffffffffffffffffffffffffffffffffffffffff168152602001858152602001848152602001838152509050600681908060018154018082558091505060019003905f5260205f2090600402015f909190919091505f820151815f015f6101000a81548173ffffffffffffffffffffffffffffffffffffffff021916908373ffffffffffffffffffffffffffffffffffffffff16021790555060208201518160010190816109839190612ae9565b5060408201518160020190816109999190612ae9565b5060608201518160030190816109af9190612ae9565b5050506109be33600854611595565b60085f8154809291906109d090612be5565b919050555050505050565b6109f583838360405180602001604052805f815250611130565b505050565b60605f60075f3373ffffffffffffffffffffffffffffffffffffffff1673ffffffffffffffffffffffffffffffffffffffff1681526020019081526020015f20805480602002602001604051908101604052809291908181526020018280548015610a8257602002820191905f5260205f20905b815481526020019060010190808311610a6e575b505050505090505f815103610ac3576040517ff8826a6900000000000000000000000000000000000000000000000000000000815260040160405180910390fd5b5f815167ffffffffffffffff811115610adf57610ade612290565b5b604051908082528060200260200182016040528015610b1857816020015b610b05611f89565b815260200190600190039081610afd5790505b5090505f5f90505b8251811015610d9d576006838281518110610b3e57610b3d612c2c565b5b602002602001015181548110610b5757610b56612c2c565b5b905f5260205f2090600402016040518060800160405290815f82015f9054906101000a900473ffffffffffffffffffffffffffffffffffffffff1673ffffffffffffffffffffffffffffffffffffffff1673ffffffffffffffffffffffffffffffffffffffff168152602001600182018054610bd290612894565b80601f0160208091040260200160405190810160405280929190818152602001828054610bfe90612894565b8015610c495780601f10610c2057610100808354040283529160200191610c49565b820191905f5260205f20905b815481529060010190602001808311610c2c57829003601f168201915b50505050508152602001600282018054610c6290612894565b80601f0160208091040260200160405190810160405280929190818152602001828054610c8e90612894565b8015610cd95780601f10610cb057610100808354040283529160200191610cd9565b820191905f5260205f20905b815481529060010190602001808311610cbc57829003601f168201915b50505050508152602001600382018054610cf290612894565b80601f0160208091040260200160405190810160405280929190818152602001828054610d1e90612894565b8015610d695780601f10610d4057610100808354040283529160200191610d69565b820191905f5260205f20905b815481529060010190602001808311610d4c57829003601f168201915b505050505081525050828281518110610d8557610d84612c2c565b5b60200260200101819052508080600101915050610b20565b50809250505090565b60085481565b5f610db6826112b2565b9050919050565b5f5f73ffffffffffffffffffffffffffffffffffffffff168273ffffffffffffffffffffffffffffffffffffffff1603610e2e575f6040517f89c62b64000000000000000000000000000000000000000000000000000000008152600401610e2591906121b7565b60405180910390fd5b60035f8373ffffffffffffffffffffffffffffffffffffffff1673ffffffffffffffffffffffffffffffffffffffff1681526020019081526020015f20549050919050565b60068181548110610e82575f80fd5b905f5260205f2090600402015f91509050805f015f9054906101000a900473ffffffffffffffffffffffffffffffffffffffff1690806001018054610ec690612894565b80601f0160208091040260200160405190810160405280929190818152602001828054610ef290612894565b8015610f3d5780601f10610f1457610100808354040283529160200191610f3d565b820191905f5260205f20905b815481529060010190602001808311610f2057829003601f168201915b505050505090806002018054610f5290612894565b80601f0160208091040260200160405190810160405280929190818152602001828054610f7e90612894565b8015610fc95780601f10610fa057610100808354040283529160200191610fc9565b820191905f5260205f20905b815481529060010190602001808311610fac57829003601f168201915b505050505090806003018054610fde90612894565b80601f016020809104026020016040519081016040528092919081815260200182805461100a90612894565b80156110555780601f1061102c57610100808354040283529160200191611055565b820191905f5260205f20905b81548152906001019060200180831161103857829003601f168201915b5050505050905084565b60606001805461106e90612894565b80601f016020809104026020016040519081016040528092919081815260200182805461109a90612894565b80156110e55780601f106110bc576101008083540402835291602001916110e5565b820191905f5260205f20905b8154815290600101906020018083116110c857829003601f168201915b5050505050905090565b6007602052815f5260405f208181548110611108575f80fd5b905f5260205f20015f91509150505481565b61112c611125611371565b83836115b2565b5050565b61113b848484610660565b61114f611146611371565b8585858561171b565b50505050565b6060611160826112b2565b505f61116a6118c7565b90505f8151116111885760405180602001604052805f8152506111b3565b80611192846118dd565b6040516020016111a3929190612c59565b6040516020818303038152906040525b915050919050565b5f60055f8473ffffffffffffffffffffffffffffffffffffffff1673ffffffffffffffffffffffffffffffffffffffff1681526020019081526020015f205f8373ffffffffffffffffffffffffffffffffffffffff1673ffffffffffffffffffffffffffffffffffffffff1681526020019081526020015f205f9054906101000a900460ff16905092915050565b5f7f01ffc9a7000000000000000000000000000000000000000000000000000000007bffffffffffffffffffffffffffffffffffffffffffffffffffffffff1916827bffffffffffffffffffffffffffffffffffffffffffffffffffffffff1916149050919050565b5f5f6112bd836119a7565b90505f73ffffffffffffffffffffffffffffffffffffffff168173ffffffffffffffffffffffffffffffffffffffff160361132f57826040517f7e2732890000000000000000000000000000000000000000000000000000000081526004016113269190612607565b60405180910390fd5b80915050919050565b5f60045f8381526020019081526020015f205f9054906101000a900473ffffffffffffffffffffffffffffffffffffffff169050919050565b5f33905090565b61138583838360016119e0565b505050565b5f5f611395846119a7565b90505f73ffffffffffffffffffffffffffffffffffffffff168373ffffffffffffffffffffffffffffffffffffffff16146113d6576113d5818486611b9f565b5b5f73ffffffffffffffffffffffffffffffffffffffff168173ffffffffffffffffffffffffffffffffffffffff1614611461576114155f855f5f6119e0565b600160035f8373ffffffffffffffffffffffffffffffffffffffff1673ffffffffffffffffffffffffffffffffffffffff1681526020019081526020015f205f82825403925050819055505b5f73ffffffffffffffffffffffffffffffffffffffff168573ffffffffffffffffffffffffffffffffffffffff16146114e057600160035f8773ffffffffffffffffffffffffffffffffffffffff1673ffffffffffffffffffffffffffffffffffffffff1681526020019081526020015f205f82825401925050819055505b8460025f8681526020019081526020015f205f6101000a81548173ffffffffffffffffffffffffffffffffffffffff021916908373ffffffffffffffffffffffffffffffffffffffff160217905550838573ffffffffffffffffffffffffffffffffffffffff168273ffffffffffffffffffffffffffffffffffffffff167fddf252ad1be2c89b69c2b068fc378daa952ba7f163c4a11628f55a4df523b3ef60405160405180910390a4809150509392505050565b6115ae828260405180602001604052805f815250611c62565b5050565b5f73ffffffffffffffffffffffffffffffffffffffff168273ffffffffffffffffffffffffffffffffffffffff160361162257816040517f5b08ba1800000000000000000000000000000000000000000000000000000000815260040161161991906121b7565b60405180910390fd5b8060055f8573ffffffffffffffffffffffffffffffffffffffff1673ffffffffffffffffffffffffffffffffffffffff1681526020019081526020015f205f8473ffffffffffffffffffffffffffffffffffffffff1673ffffffffffffffffffffffffffffffffffffffff1681526020019081526020015f205f6101000a81548160ff0219169083151502179055508173ffffffffffffffffffffffffffffffffffffffff168373ffffffffffffffffffffffffffffffffffffffff167f17307eab39ab6107e8899845ad3d59bd9653f200f220920489ca2b5937696c318360405161170e9190612071565b60405180910390a3505050565b5f8373ffffffffffffffffffffffffffffffffffffffff163b11156118c0578273ffffffffffffffffffffffffffffffffffffffff1663150b7a02868685856040518563ffffffff1660e01b81526004016117799493929190612cce565b6020604051808303815f875af19250505080156117b457506040513d601f19601f820116820180604052508101906117b19190612d2c565b60015b611835573d805f81146117e2576040519150601f19603f3d011682016040523d82523d5f602084013e6117e7565b606091505b505f81510361182d57836040517f64a0ae9200000000000000000000000000000000000000000000000000000000815260040161182491906121b7565b60405180910390fd5b805160208201fd5b63150b7a0260e01b7bffffffffffffffffffffffffffffffffffffffffffffffffffffffff1916817bffffffffffffffffffffffffffffffffffffffffffffffffffffffff1916146118be57836040517f64a0ae920000000000000000000000000000000000000000000000000000000081526004016118b591906121b7565b60405180910390fd5b505b5050505050565b606060405180602001604052805f815250905090565b60605f60016118eb84611c85565b0190505f8167ffffffffffffffff81111561190957611908612290565b5b6040519080825280601f01601f19166020018201604052801561193b5781602001600182028036833780820191505090505b5090505f82602083010190505b60011561199c578080600190039150507f3031323334353637383961626364656600000000000000000000000000000000600a86061a8153600a858161199157611990612d57565b5b0494505f8503611948575b819350505050919050565b5f60025f8381526020019081526020015f205f9054906101000a900473ffffffffffffffffffffffffffffffffffffffff169050919050565b8080611a1857505f73ffffffffffffffffffffffffffffffffffffffff168273ffffffffffffffffffffffffffffffffffffffff1614155b15611b4a575f611a27846112b2565b90505f73ffffffffffffffffffffffffffffffffffffffff168373ffffffffffffffffffffffffffffffffffffffff1614158015611a9157508273ffffffffffffffffffffffffffffffffffffffff168173ffffffffffffffffffffffffffffffffffffffff1614155b8015611aa45750611aa281846111bb565b155b15611ae657826040517fa9fbf51f000000000000000000000000000000000000000000000000000000008152600401611add91906121b7565b60405180910390fd5b8115611b4857838573ffffffffffffffffffffffffffffffffffffffff168273ffffffffffffffffffffffffffffffffffffffff167f8c5be1e5ebec7d5bd14f71427d1e84f3dd0314c0f7b2291e5b200ac8c7c3b92560405160405180910390a45b505b8360045f8581526020019081526020015f205f6101000a81548173ffffffffffffffffffffffffffffffffffffffff021916908373ffffffffffffffffffffffffffffffffffffffff16021790555050505050565b611baa838383611dd6565b611c5d575f73ffffffffffffffffffffffffffffffffffffffff168373ffffffffffffffffffffffffffffffffffffffff1603611c1e57806040517f7e273289000000000000000000000000000000000000000000000000000000008152600401611c159190612607565b60405180910390fd5b81816040517f177e802f000000000000000000000000000000000000000000000000000000008152600401611c54929190612d84565b60405180910390fd5b505050565b611c6c8383611e96565b611c80611c77611371565b5f85858561171b565b505050565b5f5f5f90507a184f03e93ff9f4daa797ed6e38ed64bf6a1f0100000000000000008310611ce1577a184f03e93ff9f4daa797ed6e38ed64bf6a1f0100000000000000008381611cd757611cd6612d57565b5b0492506040810190505b6d04ee2d6d415b85acef81000000008310611d1e576d04ee2d6d415b85acef81000000008381611d1457611d13612d57565b5b0492506020810190505b662386f26fc100008310611d4d57662386f26fc100008381611d4357611d42612d57565b5b0492506010810190505b6305f5e1008310611d76576305f5e1008381611d6c57611d6b612d57565b5b0492506008810190505b6127108310611d9b576127108381611d9157611d90612d57565b5b0492506004810190505b60648310611dbe5760648381611db457611db3612d57565b5b0492506002810190505b600a8310611dcd576001810190505b80915050919050565b5f5f73ffffffffffffffffffffffffffffffffffffffff168373ffffffffffffffffffffffffffffffffffffffff1614158015611e8d57508273ffffffffffffffffffffffffffffffffffffffff168473ffffffffffffffffffffffffffffffffffffffff161480611e4e5750611e4d84846111bb565b5b80611e8c57508273ffffffffffffffffffffffffffffffffffffffff16611e7483611338565b73ffffffffffffffffffffffffffffffffffffffff16145b5b90509392505050565b5f73ffffffffffffffffffffffffffffffffffffffff168273ffffffffffffffffffffffffffffffffffffffff1603611f06575f6040517f64a0ae92000000000000000000000000000000000000000000000000000000008152600401611efd91906121b7565b60405180910390fd5b5f611f1283835f61138a565b90505f73ffffffffffffffffffffffffffffffffffffffff168173ffffffffffffffffffffffffffffffffffffffff1614611f84575f6040517f73c6ac6e000000000000000000000000000000000000000000000000000000008152600401611f7b91906121b7565b60405180910390fd5b505050565b60405180608001604052805f73ffffffffffffffffffffffffffffffffffffffff1681526020016060815260200160608152602001606081525090565b5f604051905090565b5f5ffd5b5f5ffd5b5f7fffffffff0000000000000000000000000000000000000000000000000000000082169050919050565b61200b81611fd7565b8114612015575f5ffd5b50565b5f8135905061202681612002565b92915050565b5f6020828403121561204157612040611fcf565b5b5f61204e84828501612018565b91505092915050565b5f8115159050919050565b61206b81612057565b82525050565b5f6020820190506120845f830184612062565b92915050565b5f81519050919050565b5f82825260208201905092915050565b8281835e5f83830152505050565b5f601f19601f8301169050919050565b5f6120cc8261208a565b6120d68185612094565b93506120e68185602086016120a4565b6120ef816120b2565b840191505092915050565b5f6020820190508181035f83015261211281846120c2565b905092915050565b5f819050919050565b61212c8161211a565b8114612136575f5ffd5b50565b5f8135905061214781612123565b92915050565b5f6020828403121561216257612161611fcf565b5b5f61216f84828501612139565b91505092915050565b5f73ffffffffffffffffffffffffffffffffffffffff82169050919050565b5f6121a182612178565b9050919050565b6121b181612197565b82525050565b5f6020820190506121ca5f8301846121a8565b92915050565b6121d981612197565b81146121e3575f5ffd5b50565b5f813590506121f4816121d0565b92915050565b5f5f604083850312156122105761220f611fcf565b5b5f61221d858286016121e6565b925050602061222e85828601612139565b9150509250929050565b5f5f5f6060848603121561224f5761224e611fcf565b5b5f61225c868287016121e6565b935050602061226d868287016121e6565b925050604061227e86828701612139565b9150509250925092565b5f5ffd5b5f5ffd5b7f4e487b71000000000000000000000000000000000000000000000000000000005f52604160045260245ffd5b6122c6826120b2565b810181811067ffffffffffffffff821117156122e5576122e4612290565b5b80604052505050565b5f6122f7611fc6565b905061230382826122bd565b919050565b5f67ffffffffffffffff82111561232257612321612290565b5b61232b826120b2565b9050602081019050919050565b828183375f83830152505050565b5f61235861235384612308565b6122ee565b9050828152602081018484840111156123745761237361228c565b5b61237f848285612338565b509392505050565b5f82601f83011261239b5761239a612288565b5b81356123ab848260208601612346565b91505092915050565b5f5f5f606084860312156123cb576123ca611fcf565b5b5f84013567ffffffffffffffff8111156123e8576123e7611fd3565b5b6123f486828701612387565b935050602084013567ffffffffffffffff81111561241557612414611fd3565b5b61242186828701612387565b925050604084013567ffffffffffffffff81111561244257612441611fd3565b5b61244e86828701612387565b9150509250925092565b5f81519050919050565b5f82825260208201905092915050565b5f819050602082019050919050565b61248a81612197565b82525050565b5f82825260208201905092915050565b5f6124aa8261208a565b6124b48185612490565b93506124c48185602086016120a4565b6124cd816120b2565b840191505092915050565b5f608083015f8301516124ed5f860182612481565b506020830151848203602086015261250582826124a0565b9150506040830151848203604086015261251f82826124a0565b9150506060830151848203606086015261253982826124a0565b9150508091505092915050565b5f61255183836124d8565b905092915050565b5f602082019050919050565b5f61256f82612458565b6125798185612462565b93508360208202850161258b85612472565b805f5b858110156125c657848403895281516125a78582612546565b94506125b283612559565b925060208a0199505060018101905061258e565b50829750879550505050505092915050565b5f6020820190508181035f8301526125f08184612565565b905092915050565b6126018161211a565b82525050565b5f60208201905061261a5f8301846125f8565b92915050565b5f6020828403121561263557612634611fcf565b5b5f612642848285016121e6565b91505092915050565b5f60808201905061265e5f8301876121a8565b818103602083015261267081866120c2565b9050818103604083015261268481856120c2565b9050818103606083015261269881846120c2565b905095945050505050565b6126ac81612057565b81146126b6575f5ffd5b50565b5f813590506126c7816126a3565b92915050565b5f5f604083850312156126e3576126e2611fcf565b5b5f6126f0858286016121e6565b9250506020612701858286016126b9565b9150509250929050565b5f67ffffffffffffffff82111561272557612724612290565b5b61272e826120b2565b9050602081019050919050565b5f61274d6127488461270b565b6122ee565b9050828152602081018484840111156127695761276861228c565b5b612774848285612338565b509392505050565b5f82601f8301126127905761278f612288565b5b81356127a084826020860161273b565b91505092915050565b5f5f5f5f608085870312156127c1576127c0611fcf565b5b5f6127ce878288016121e6565b94505060206127df878288016121e6565b93505060406127f087828801612139565b925050606085013567ffffffffffffffff81111561281157612810611fd3565b5b61281d8782880161277c565b91505092959194509250565b5f5f6040838503121561283f5761283e611fcf565b5b5f61284c858286016121e6565b925050602061285d858286016121e6565b9150509250929050565b7f4e487b71000000000000000000000000000000000000000000000000000000005f52602260045260245ffd5b5f60028204905060018216806128ab57607f821691505b6020821081036128be576128bd612867565b5b50919050565b5f6060820190506128d75f8301866121a8565b6128e460208301856125f8565b6128f160408301846121a8565b949350505050565b5f81905092915050565b5f61290d8261208a565b61291781856128f9565b93506129278185602086016120a4565b80840191505092915050565b5f61293e8284612903565b915081905092915050565b5f819050815f5260205f209050919050565b5f6020601f8301049050919050565b5f82821b905092915050565b5f600883026129a57fffffffffffffffffffffffffffffffffffffffffffffffffffffffffffffffff8261296a565b6129af868361296a565b95508019841693508086168417925050509392505050565b5f819050919050565b5f6129ea6129e56129e08461211a565b6129c7565b61211a565b9050919050565b5f819050919050565b612a03836129d0565b612a17612a0f826129f1565b848454612976565b825550505050565b5f5f905090565b612a2e612a1f565b612a398184846129fa565b505050565b5b81811015612a5c57612a515f82612a26565b600181019050612a3f565b5050565b601f821115612aa157612a7281612949565b612a7b8461295b565b81016020851015612a8a578190505b612a9e612a968561295b565b830182612a3e565b50505b505050565b5f82821c905092915050565b5f612ac15f1984600802612aa6565b1980831691505092915050565b5f612ad98383612ab2565b9150826002028217905092915050565b612af28261208a565b67ffffffffffffffff811115612b0b57612b0a612290565b5b612b158254612894565b612b20828285612a60565b5f60209050601f831160018114612b51575f8415612b3f578287015190505b612b498582612ace565b865550612bb0565b601f198416612b5f86612949565b5f5b82811015612b8657848901518255600182019150602085019450602081019050612b61565b86831015612ba35784890151612b9f601f891682612ab2565b8355505b6001600288020188555050505b505050505050565b7f4e487b71000000000000000000000000000000000000000000000000000000005f52601160045260245ffd5b5f612bef8261211a565b91507fffffffffffffffffffffffffffffffffffffffffffffffffffffffffffffffff8203612c2157612c20612bb8565b5b600182019050919050565b7f4e487b71000000000000000000000000000000000000000000000000000000005f52603260045260245ffd5b5f612c648285612903565b9150612c708284612903565b91508190509392505050565b5f81519050919050565b5f82825260208201905092915050565b5f612ca082612c7c565b612caa8185612c86565b9350612cba8185602086016120a4565b612cc3816120b2565b840191505092915050565b5f608082019050612ce15f8301876121a8565b612cee60208301866121a8565b612cfb60408301856125f8565b8181036060830152612d0d8184612c96565b905095945050505050565b5f81519050612d2681612002565b92915050565b5f60208284031215612d4157612d40611fcf565b5b5f612d4e84828501612d18565b91505092915050565b7f4e487b71000000000000000000000000000000000000000000000000000000005f52601260045260245ffd5b5f604082019050612d975f8301856121a8565b612da460208301846125f8565b939250505056fea2646970667358221220246eb1f160878c2ffcc35f62faa49a5cbc28f4082553443dba05f56f0b65427d64736f6c634300081e0033","linkReferences":{}},"methodIdentifiers":{"approve(address,uint256)":"095ea7b3","balanceOf(address)":"70a08231","counter()":"61bc221a","getApproved(uint256)":"081812fc","getMySharedHaikus()":"49af5bfe","haikus(uint256)":"7cb82b2a","isApprovedForAll(address,address)":"e985e9c5","mintHaiku(string,string,string)":"350fe165","name()":"06fdde03","ownerOf(uint256)":"6352211e","safeTransferFrom(address,address,uint256)":"42842e0e","safeTransferFrom(address,address,uint256,bytes)":"b88d4fde","setApprovalForAll(address,bool)":"a22cb465","shareHaiku(address,uint256)":"0884d540","sharedHaikus(address,uint256)":"97afe82d","supportsInterface(bytes4)":"01ffc9a7","symbol()":"95d89b41","tokenURI(uint256)":"c87b56dd","transferFrom(address,address,uint256)":"23b872dd"},"id":31}