{"abi":[{"type":"function","name":"getHaiku","inputs":[],"outputs":[{"name":"","type":"tuple","internalType":"struct SillyStringUtils.Haiku","components":[{"name":"line1","type":"string","internalType":"string"},{"name":"line2","type":"string","internalType":"string"},{"name":"line3","type":"string","internalType":"string"}]}],"stateMutability":"view"},{"type":"function","name":"haiku","inputs":[],"outputs":[{"name":"line1","type":"string","internalType":"string"},{"name":"line2","type":"string","internalType":"string"},{"name":"line3","type":"string","internalType":"string"}],"stateMutability":"view"},{"type":"function","name":"saveHaiku","inputs":[{"name":"_line1","type":"string","internalType":"string"},{"name":"_line2","type":"string","internalType":"string"},{"name":"_line3","type":"string","internalType":"string"}],"outputs":[],"stateMutability":"nonpayable"},{"type":"function","name":"shruggieHaiku","inputs":[],"outputs":[{"name":"","type":"tuple","internalType":"struct SillyStringUtils.Haiku","components":[{"name":"line1","type":"string","internalType":"string"},{"name":"line2","type":"string","internalType":"string"},{"name":"line3","type":"string","internalType":"string"}]}],"stateMutability":"view"}],"bytecode":{"object":"0x6080604052348015600e575f5ffd5b50610d9f8061001c5f395ff3fe608060405234801561000f575f5ffd5b506004361061004a575f3560e01c806325eb69a91461004e578063583dc7691461006c578063728d3c07146100885780638346cbef146100a8575b5f5ffd5b6100566100c6565b604051610063919061077c565b60405180910390f35b610086600480360381019061008191906108d9565b61028e565b005b6100906102f2565b60405161009f939291906109c5565b60405180910390f35b6100b061049a565b6040516100bd919061077c565b60405180910390f35b6100ce610690565b5f6040518060600160405290815f820180546100e990610a3c565b80601f016020809104026020016040519081016040528092919081815260200182805461011590610a3c565b80156101605780601f1061013757610100808354040283529160200191610160565b820191905f5260205f20905b81548152906001019060200180831161014357829003601f168201915b5050505050815260200160018201805461017990610a3c565b80601f01602080910402602001604051908101604052809291908181526020018280546101a590610a3c565b80156101f05780601f106101c7576101008083540402835291602001916101f0565b820191905f5260205f20905b8154815290600101906020018083116101d357829003601f168201915b5050505050815260200160028201805461020990610a3c565b80601f016020809104026020016040519081016040528092919081815260200182805461023590610a3c565b80156102805780601f1061025757610100808354040283529160200191610280565b820191905f5260205f20905b81548152906001019060200180831161026357829003601f168201915b505050505081525050905090565b6040518060600160405280848152602001838152602001828152505f5f820151815f0190816102bd9190610c15565b5060208201518160010190816102d39190610c15565b5060408201518160020190816102e99190610c15565b50905050505050565b5f805f01805461030190610a3c565b80601f016020809104026020016040519081016040528092919081815260200182805461032d90610a3c565b80156103785780601f1061034f57610100808354040283529160200191610378565b820191905f5260205f20905b81548152906001019060200180831161035b57829003601f168201915b50505050509080600101805461038d90610a3c565b80601f01602080910402602001604051908101604052809291908181526020018280546103b990610a3c565b80156104045780601f106103db57610100808354040283529160200191610404565b820191905f5260205f20905b8154815290600101906020018083116103e757829003601f168201915b50505050509080600201805461041990610a3c565b80601f016020809104026020016040519081016040528092919081815260200182805461044590610a3c565b80156104905780601f1061046757610100808354040283529160200191610490565b820191905f5260205f20905b81548152906001019060200180831161047357829003601f168201915b5050505050905083565b6104a2610690565b60405180606001604052805f5f0180546104bb90610a3c565b80601f01602080910402602001604051908101604052809291908181526020018280546104e790610a3c565b80156105325780601f1061050957610100808354040283529160200191610532565b820191905f5260205f20905b81548152906001019060200180831161051557829003601f168201915b505050505081526020015f600101805461054b90610a3c565b80601f016020809104026020016040519081016040528092919081815260200182805461057790610a3c565b80156105c25780601f10610599576101008083540402835291602001916105c2565b820191905f5260205f20905b8154815290600101906020018083116105a557829003601f168201915b5050505050815260200161065f5f60020180546105de90610a3c565b80601f016020809104026020016040519081016040528092919081815260200182805461060a90610a3c565b80156106555780601f1061062c57610100808354040283529160200191610655565b820191905f5260205f20905b81548152906001019060200180831161063857829003601f168201915b5050505050610667565b815250905090565b60608160405160200161067a9190610d44565b6040516020818303038152906040529050919050565b60405180606001604052806060815260200160608152602001606081525090565b5f81519050919050565b5f82825260208201905092915050565b8281835e5f83830152505050565b5f601f19601f8301169050919050565b5f6106f3826106b1565b6106fd81856106bb565b935061070d8185602086016106cb565b610716816106d9565b840191505092915050565b5f606083015f8301518482035f86015261073b82826106e9565b9150506020830151848203602086015261075582826106e9565b9150506040830151848203604086015261076f82826106e9565b9150508091505092915050565b5f6020820190508181035f8301526107948184610721565b905092915050565b5f604051905090565b5f5ffd5b5f5ffd5b5f5ffd5b5f5ffd5b7f4e487b71000000000000000000000000000000000000000000000000000000005f52604160045260245ffd5b6107eb826106d9565b810181811067ffffffffffffffff8211171561080a576108096107b5565b5b80604052505050565b5f61081c61079c565b905061082882826107e2565b919050565b5f67ffffffffffffffff821115610847576108466107b5565b5b610850826106d9565b9050602081019050919050565b828183375f83830152505050565b5f61087d6108788461082d565b610813565b905082815260208101848484011115610899576108986107b1565b5b6108a484828561085d565b509392505050565b5f82601f8301126108c0576108bf6107ad565b5b81356108d084826020860161086b565b91505092915050565b5f5f5f606084860312156108f0576108ef6107a5565b5b5f84013567ffffffffffffffff81111561090d5761090c6107a9565b5b610919868287016108ac565b935050602084013567ffffffffffffffff81111561093a576109396107a9565b5b610946868287016108ac565b925050604084013567ffffffffffffffff811115610967576109666107a9565b5b610973868287016108ac565b9150509250925092565b5f82825260208201905092915050565b5f610997826106b1565b6109a1818561097d565b93506109b18185602086016106cb565b6109ba816106d9565b840191505092915050565b5f6060820190508181035f8301526109dd818661098d565b905081810360208301526109f1818561098d565b90508181036040830152610a05818461098d565b9050949350505050565b7f4e487b71000000000000000000000000000000000000000000000000000000005f52602260045260245ffd5b5f6002820490506001821680610a5357607f821691505b602082108103610a6657610a65610a0f565b5b50919050565b5f819050815f5260205f209050919050565b5f6020601f8301049050919050565b5f82821b905092915050565b5f60088302610ac87fffffffffffffffffffffffffffffffffffffffffffffffffffffffffffffffff82610a8d565b610ad28683610a8d565b95508019841693508086168417925050509392505050565b5f819050919050565b5f819050919050565b5f610b16610b11610b0c84610aea565b610af3565b610aea565b9050919050565b5f819050919050565b610b2f83610afc565b610b43610b3b82610b1d565b848454610a99565b825550505050565b5f5f905090565b610b5a610b4b565b610b65818484610b26565b505050565b5b81811015610b8857610b7d5f82610b52565b600181019050610b6b565b5050565b601f821115610bcd57610b9e81610a6c565b610ba784610a7e565b81016020851015610bb6578190505b610bca610bc285610a7e565b830182610b6a565b50505b505050565b5f82821c905092915050565b5f610bed5f1984600802610bd2565b1980831691505092915050565b5f610c058383610bde565b9150826002028217905092915050565b610c1e826106b1565b67ffffffffffffffff811115610c3757610c366107b5565b5b610c418254610a3c565b610c4c828285610b8c565b5f60209050601f831160018114610c7d575f8415610c6b578287015190505b610c758582610bfa565b865550610cdc565b601f198416610c8b86610a6c565b5f5b82811015610cb257848901518255600182019150602085019450602081019050610c8d565b86831015610ccf5784890151610ccb601f891682610bde565b8355505b6001600288020188555050505b505050505050565b5f81905092915050565b5f610cf8826106b1565b610d028185610ce4565b9350610d128185602086016106cb565b80840191505092915050565b7f20f09fa4b7000000000000000000000000000000000000000000000000000000815250565b5f610d4f8284610cee565b9150610d5a82610d1e565b6005820191508190509291505056fea2646970667358221220c57463d03af72f503589d17134fe3542c09398b07536efe8cbf8e78d58d718ff64736f6c634300081e0033","linkReferences":{}},"methodIdentifiers":{"getHaiku()":"25eb69a9","haiku()":"728d3c07","saveHaiku(string,string,string)":"583dc769","shruggieHaiku()":"8346cbef"},"id":32}