{"abi":[{"type":"constructor","inputs":[],"stateMutability":"nonpayable"},{"type":"function","name":"balances","inputs":[{"name":"","type":"address","internalType":"address"}],"outputs":[{"name":"","type":"uint256","internalType":"uint256"}],"stateMutability":"view"},{"type":"function","name":"claim","inputs":[],"outputs":[],"stateMutability":"nonpayable"},{"type":"function","name":"safeTransfer","inputs":[{"name":"_to","type":"address","internalType":"address"},{"name":"_amount","type":"uint256","internalType":"uint256"}],"outputs":[],"stateMutability":"nonpayable"},{"type":"function","name":"totalClaimed","inputs":[],"outputs":[{"name":"","type":"uint256","internalType":"uint256"}],"stateMutability":"view"},{"type":"function","name":"totalSupply","inputs":[],"outputs":[{"name":"","type":"uint256","internalType":"uint256"}],"stateMutability":"view"},{"type":"error","name":"AllTokensClaimed","inputs":[]},{"type":"error","name":"TokensClaimed","inputs":[]},{"type":"error","name":"UnsafeTransfer","inputs":[{"name":"","type":"address","internalType":"address"}]}],"bytecode":{"object":"0x6080604052348015600e575f5ffd5b506305f5e1006001819055505f60028190555061071a8061002e5f395ff3fe608060405234801561000f575f5ffd5b5060043610610055575f3560e01c806318160ddd1461005957806327e235e314610077578063423f6cef146100a75780634e71d92d146100c3578063d54ad2a1146100cd575b5f5ffd5b6100616100eb565b60405161006e91906104a7565b60405180910390f35b610091600480360381019061008c919061051e565b6100f1565b60405161009e91906104a7565b60405180910390f35b6100c160048036038101906100bc9190610573565b610105565b005b6100cb6102f7565b005b6100d5610489565b6040516100e291906104a7565b60405180910390f35b60015481565b5f602052805f5260405f205f915090505481565b805f5f3373ffffffffffffffffffffffffffffffffffffffff1673ffffffffffffffffffffffffffffffffffffffff1681526020019081526020015f20541015610184576040517f08c379a000000000000000000000000000000000000000000000000000000000815260040161017b9061060b565b60405180910390fd5b5f73ffffffffffffffffffffffffffffffffffffffff168273ffffffffffffffffffffffffffffffffffffffff16036101f457816040517f6a86d24c0000000000000000000000000000000000000000000000000000000081526004016101eb9190610638565b60405180910390fd5b5f8273ffffffffffffffffffffffffffffffffffffffff16310361024f57816040517f6a86d24c0000000000000000000000000000000000000000000000000000000081526004016102469190610638565b60405180910390fd5b805f5f3373ffffffffffffffffffffffffffffffffffffffff1673ffffffffffffffffffffffffffffffffffffffff1681526020019081526020015f205f82825461029a919061067e565b92505081905550805f5f8473ffffffffffffffffffffffffffffffffffffffff1673ffffffffffffffffffffffffffffffffffffffff1681526020019081526020015f205f8282546102ec91906106b1565b925050819055505050565b60035f3373ffffffffffffffffffffffffffffffffffffffff1673ffffffffffffffffffffffffffffffffffffffff1681526020019081526020015f205f9054906101000a900460ff1615610378576040517f0b1327a600000000000000000000000000000000000000000000000000000000815260040160405180910390fd5b5f6103e890506001548160025461038f91906106b1565b11156103c7576040517fcbe2483100000000000000000000000000000000000000000000000000000000815260040160405180910390fd5b600160035f3373ffffffffffffffffffffffffffffffffffffffff1673ffffffffffffffffffffffffffffffffffffffff1681526020019081526020015f205f6101000a81548160ff021916908315150217905550805f5f3373ffffffffffffffffffffffffffffffffffffffff1673ffffffffffffffffffffffffffffffffffffffff1681526020019081526020015f205f82825461046791906106b1565b925050819055508060025f82825461047f91906106b1565b9250508190555050565b60025481565b5f819050919050565b6104a18161048f565b82525050565b5f6020820190506104ba5f830184610498565b92915050565b5f5ffd5b5f73ffffffffffffffffffffffffffffffffffffffff82169050919050565b5f6104ed826104c4565b9050919050565b6104fd816104e3565b8114610507575f5ffd5b50565b5f81359050610518816104f4565b92915050565b5f60208284031215610533576105326104c0565b5b5f6105408482850161050a565b91505092915050565b6105528161048f565b811461055c575f5ffd5b50565b5f8135905061056d81610549565b92915050565b5f5f60408385031215610589576105886104c0565b5b5f6105968582860161050a565b92505060206105a78582860161055f565b9150509250929050565b5f82825260208201905092915050565b7f496e73756666696369656e742062616c616e63650000000000000000000000005f82015250565b5f6105f56014836105b1565b9150610600826105c1565b602082019050919050565b5f6020820190508181035f830152610622816105e9565b9050919050565b610632816104e3565b82525050565b5f60208201905061064b5f830184610629565b92915050565b7f4e487b71000000000000000000000000000000000000000000000000000000005f52601160045260245ffd5b5f6106888261048f565b91506106938361048f565b92508282039050818111156106ab576106aa610651565b5b92915050565b5f6106bb8261048f565b91506106c68361048f565b92508282019050808211156106de576106dd610651565b5b9291505056fea2646970667358221220635250bb868affeb4f915c5c2db4ec99ed20c073cd95477098155734a202467064736f6c634300081e0033","linkReferences":{}},"methodIdentifiers":{"balances(address)":"27e235e3","claim()":"4e71d92d","safeTransfer(address,uint256)":"423f6cef","totalClaimed()":"d54ad2a1","totalSupply()":"18160ddd"},"id":36}