{"abi":[{"type":"constructor","inputs":[],"stateMutability":"nonpayable"},{"type":"function","name":"allowance","inputs":[{"name":"owner","type":"address","internalType":"address"},{"name":"spender","type":"address","internalType":"address"}],"outputs":[{"name":"","type":"uint256","internalType":"uint256"}],"stateMutability":"view"},{"type":"function","name":"approve","inputs":[{"name":"spender","type":"address","internalType":"address"},{"name":"value","type":"uint256","internalType":"uint256"}],"outputs":[{"name":"","type":"bool","internalType":"bool"}],"stateMutability":"nonpayable"},{"type":"function","name":"balanceOf","inputs":[{"name":"account","type":"address","internalType":"address"}],"outputs":[{"name":"","type":"uint256","internalType":"uint256"}],"stateMutability":"view"},{"type":"function","name":"claim","inputs":[],"outputs":[],"stateMutability":"nonpayable"},{"type":"function","name":"createIssue","inputs":[{"name":"_issueDesc","type":"string","internalType":"string"},{"name":"_quorum","type":"uint256","internalType":"uint256"}],"outputs":[{"name":"","type":"uint256","internalType":"uint256"}],"stateMutability":"nonpayable"},{"type":"function","name":"decimals","inputs":[],"outputs":[{"name":"","type":"uint8","internalType":"uint8"}],"stateMutability":"view"},{"type":"function","name":"getIssue","inputs":[{"name":"_id","type":"uint256","internalType":"uint256"}],"outputs":[{"name":"","type":"tuple","internalType":"struct WeightedVoting.ReturnableIssue","components":[{"name":"voters","type":"address[]","internalType":"address[]"},{"name":"issueDesc","type":"string","internalType":"string"},{"name":"votesFor","type":"uint256","internalType":"uint256"},{"name":"votesAgainst","type":"uint256","internalType":"uint256"},{"name":"votesAbstain","type":"uint256","internalType":"uint256"},{"name":"totalVotes","type":"uint256","internalType":"uint256"},{"name":"quorum","type":"uint256","internalType":"uint256"},{"name":"passed","type":"bool","internalType":"bool"},{"name":"closed","type":"bool","internalType":"bool"}]}],"stateMutability":"view"},{"type":"function","name":"getIssuesLength","inputs":[],"outputs":[{"name":"","type":"uint256","internalType":"uint256"}],"stateMutability":"view"},{"type":"function","name":"hasClaimed","inputs":[{"name":"","type":"address","internalType":"address"}],"outputs":[{"name":"","type":"bool","internalType":"bool"}],"stateMutability":"view"},{"type":"function","name":"maxSupply","inputs":[],"outputs":[{"name":"","type":"uint256","internalType":"uint256"}],"stateMutability":"view"},{"type":"function","name":"name","inputs":[],"outputs":[{"name":"","type":"string","internalType":"string"}],"stateMutability":"view"},{"type":"function","name":"symbol","inputs":[],"outputs":[{"name":"","type":"string","internalType":"string"}],"stateMutability":"view"},{"type":"function","name":"totalSupply","inputs":[],"outputs":[{"name":"","type":"uint256","internalType":"uint256"}],"stateMutability":"view"},{"type":"function","name":"transfer","inputs":[{"name":"to","type":"address","internalType":"address"},{"name":"value","type":"uint256","internalType":"uint256"}],"outputs":[{"name":"","type":"bool","internalType":"bool"}],"stateMutability":"nonpayable"},{"type":"function","name":"transferFrom","inputs":[{"name":"from","type":"address","internalType":"address"},{"name":"to","type":"address","internalType":"address"},{"name":"value","type":"uint256","internalType":"uint256"}],"outputs":[{"name":"","type":"bool","internalType":"bool"}],"stateMutability":"nonpayable"},{"type":"function","name":"vote","inputs":[{"name":"_issueId","type":"uint256","internalType":"uint256"},{"name":"_vote","type":"uint8","internalType":"enum WeightedVoting.Vote"}],"outputs":[],"stateMutability":"nonpayable"},{"type":"event","name":"Approval","inputs":[{"name":"owner","type":"address","indexed":true,"internalType":"address"},{"name":"spender","type":"address","indexed":true,"internalType":"address"},{"name":"value","type":"uint256","indexed":false,"internalType":"uint256"}],"anonymous":false},{"type":"event","name":"Transfer","inputs":[{"name":"from","type":"address","indexed":true,"internalType":"address"},{"name":"to","type":"address","indexed":true,"internalType":"address"},{"name":"value","type":"uint256","indexed":false,"internalType":"uint256"}],"anonymous":false},{"type":"error","name":"AllTokensClaimed","inputs":[]},{"type":"error","name":"AlreadyVoted","inputs":[]},{"type":"error","name":"ERC20InsufficientAllowance","inputs":[{"name":"spender","type":"address","internalType":"address"},{"name":"allowance","type":"uint256","internalType":"uint256"},{"name":"needed","type":"uint256","internalType":"uint256"}]},{"type":"error","name":"ERC20InsufficientBalance","inputs":[{"name":"sender","type":"address","internalType":"address"},{"name":"balance","type":"uint256","internalType":"uint256"},{"name":"needed","type":"uint256","internalType":"uint256"}]},{"type":"error","name":"ERC20InvalidApprover","inputs":[{"name":"approver","type":"address","internalType":"address"}]},{"type":"error","name":"ERC20InvalidReceiver","inputs":[{"name":"receiver","type":"address","internalType":"address"}]},{"type":"error","name":"ERC20InvalidSender","inputs":[{"name":"sender","type":"address","internalType":"address"}]},{"type":"error","name":"ERC20InvalidSpender","inputs":[{"name":"spender","type":"address","internalType":"address"}]},{"type":"error","name":"NoTokensHeld","inputs":[]},{"type":"error","name":"QuorumTooHigh","inputs":[{"name":"quorum","type":"uint256","internalType":"uint256"}]},{"type":"error","name":"TokensClaimed","inputs":[]},{"type":"error","name":"VotingClosed","inputs":[]}],"bytecode":{"object":"0x6080604052620f4240600555348015610016575f5ffd5b506040518060400160405280600e81526020017f5765696768746564566f74696e670000000000000000000000000000000000008152506040518060400160405280600281526020017f57560000000000000000000000000000000000000000000000000000000000008152508160039081610092919061033f565b5080600490816100a2919061033f565b505050600660018160018154018082558091505003905f5260205f20905050600160065f815481106100d7576100d661040e565b5b905f5260205f20906009020160080160016101000a81548160ff02191690831515021790555061043b565b5f81519050919050565b7f4e487b71000000000000000000000000000000000000000000000000000000005f52604160045260245ffd5b7f4e487b71000000000000000000000000000000000000000000000000000000005f52602260045260245ffd5b5f600282049050600182168061017d57607f821691505b6020821081036101905761018f610139565b5b50919050565b5f819050815f5260205f209050919050565b5f6020601f8301049050919050565b5f82821b905092915050565b5f600883026101f27fffffffffffffffffffffffffffffffffffffffffffffffffffffffffffffffff826101b7565b6101fc86836101b7565b95508019841693508086168417925050509392505050565b5f819050919050565b5f819050919050565b5f61024061023b61023684610214565b61021d565b610214565b9050919050565b5f819050919050565b61025983610226565b61026d61026582610247565b8484546101c3565b825550505050565b5f5f905090565b610284610275565b61028f818484610250565b505050565b5b818110156102b2576102a75f8261027c565b600181019050610295565b5050565b601f8211156102f7576102c881610196565b6102d1846101a8565b810160208510156102e0578190505b6102f46102ec856101a8565b830182610294565b50505b505050565b5f82821c905092915050565b5f6103175f19846008026102fc565b1980831691505092915050565b5f61032f8383610308565b9150826002028217905092915050565b61034882610102565b67ffffffffffffffff8111156103615761036061010c565b5b61036b8254610166565b6103768282856102b6565b5f60209050601f8311600181146103a7575f8415610395578287015190505b61039f8582610324565b865550610406565b601f1984166103b586610196565b5f5b828110156103dc578489015182556001820191506020850194506020810190506103b7565b868310156103f957848901516103f5601f891682610308565b8355505b6001600288020188555050505b505050505050565b7f4e487b71000000000000000000000000000000000000000000000000000000005f52603260045260245ffd5b6121bc806104485f395ff3fe608060405234801561000f575f5ffd5b50600436106100fe575f3560e01c80637cd1fa6311610095578063976b311311610064578063976b3113146102ae578063a9059cbb146102de578063d5abeb011461030e578063dd62ed3e1461032c576100fe565b80637cd1fa63146102265780638615d85514610244578063943e82161461027457806395d89b4114610290576100fe565b8063313ce567116100d1578063313ce5671461019e5780634e71d92d146101bc57806370a08231146101c657806373b2e80e146101f6576100fe565b806306fdde0314610102578063095ea7b31461012057806318160ddd1461015057806323b872dd1461016e575b5f5ffd5b61010a61035c565b6040516101179190611644565b60405180910390f35b61013a60048036038101906101359190611702565b6103ec565b604051610147919061175a565b60405180910390f35b61015861040e565b6040516101659190611782565b60405180910390f35b6101886004803603810190610183919061179b565b610417565b604051610195919061175a565b60405180910390f35b6101a6610445565b6040516101b39190611806565b60405180910390f35b6101c461044d565b005b6101e060048036038101906101db919061181f565b61057f565b6040516101ed9190611782565b60405180910390f35b610210600480360381019061020b919061181f565b6105c4565b60405161021d919061175a565b60405180910390f35b61022e6105e1565b60405161023b9190611782565b60405180910390f35b61025e60048036038101906102599190611976565b6105ed565b60405161026b9190611782565b60405180910390f35b61028e600480360381019061028991906119f3565b610824565b005b610298610ab2565b6040516102a59190611644565b60405180910390f35b6102c860048036038101906102c39190611a31565b610b42565b6040516102d59190611c42565b60405180910390f35b6102f860048036038101906102f39190611702565b610d9d565b604051610305919061175a565b60405180910390f35b610316610dbf565b6040516103239190611782565b60405180910390f35b61034660048036038101906103419190611c62565b610dc5565b6040516103539190611782565b60405180910390f35b60606003805461036b90611ccd565b80601f016020809104026020016040519081016040528092919081815260200182805461039790611ccd565b80156103e25780601f106103b9576101008083540402835291602001916103e2565b820191905f5260205f20905b8154815290600101906020018083116103c557829003601f168201915b5050505050905090565b5f5f6103f6610e47565b9050610403818585610e4e565b600191505092915050565b5f600254905090565b5f5f610421610e47565b905061042e858285610e60565b610439858585610ef3565b60019150509392505050565b5f6012905090565b60075f3373ffffffffffffffffffffffffffffffffffffffff1673ffffffffffffffffffffffffffffffffffffffff1681526020019081526020015f205f9054906101000a900460ff16156104ce576040517f0b1327a600000000000000000000000000000000000000000000000000000000815260040160405180910390fd5b60055460646104db61040e565b6104e59190611d2a565b111561051d576040517fcbe2483100000000000000000000000000000000000000000000000000000000815260040160405180910390fd5b600160075f3373ffffffffffffffffffffffffffffffffffffffff1673ffffffffffffffffffffffffffffffffffffffff1681526020019081526020015f205f6101000a81548160ff02191690831515021790555061057d336064610fe3565b565b5f5f5f8373ffffffffffffffffffffffffffffffffffffffff1673ffffffffffffffffffffffffffffffffffffffff1681526020019081526020015f20549050919050565b6007602052805f5260405f205f915054906101000a900460ff1681565b5f600680549050905090565b5f5f6105f83361057f565b0361062f576040517f8439960d00000000000000000000000000000000000000000000000000000000815260040160405180910390fd5b61063761040e565b82111561067b57816040517f589a49520000000000000000000000000000000000000000000000000000000081526004016106729190611782565b60405180910390fd5b600660018160018154018082558091505003905f5260205f209050505f60016006805490506106aa9190611d5d565b905083600682815481106106c1576106c0611d90565b5b905f5260205f20906009020160020190816106dc9190611f5d565b5082600682815481106106f2576106f1611d90565b5b905f5260205f209060090201600701819055505f6006828154811061071a57610719611d90565b5b905f5260205f209060090201600301819055505f6006828154811061074257610741611d90565b5b905f5260205f209060090201600401819055505f6006828154811061076a57610769611d90565b5b905f5260205f209060090201600501819055505f6006828154811061079257610791611d90565b5b905f5260205f209060090201600601819055505f600682815481106107ba576107b9611d90565b5b905f5260205f2090600902016008015f6101000a81548160ff0219169083151502179055505f600682815481106107f4576107f3611d90565b5b905f5260205f20906009020160080160016101000a81548160ff0219169083151502179055508091505092915050565b600680549050821061086b576040517f08c379a000000000000000000000000000000000000000000000000000000000815260040161086290612076565b60405180910390fd5b5f600683815481106108805761087f611d90565b5b905f5260205f20906009020190508060080160019054906101000a900460ff16156108d7576040517f66b6cb4a00000000000000000000000000000000000000000000000000000000815260040160405180910390fd5b6108ec33825f0161106290919063ffffffff16565b15610923576040517f7c9a1cf900000000000000000000000000000000000000000000000000000000815260040160405180910390fd5b5f61092d3361057f565b90505f8111610971576040517f08c379a0000000000000000000000000000000000000000000000000000000008152600401610968906120de565b60405180910390fd5b61098633835f0161108f90919063ffffffff16565b506001600281111561099b5761099a6120fc565b5b8360028111156109ae576109ad6120fc565b5b036109d25780826003015f8282546109c69190611d2a565b92505081905550610a38565b5f60028111156109e5576109e46120fc565b5b8360028111156109f8576109f76120fc565b5b03610a1c5780826004015f828254610a109190611d2a565b92505081905550610a37565b80826005015f828254610a2f9190611d2a565b925050819055505b5b80826006015f828254610a4b9190611d2a565b925050819055508160070154826006015410610aac5760018260080160016101000a81548160ff021916908315150217905550816004015482600301541115610aab576001826008015f6101000a81548160ff0219169083151502179055505b5b50505050565b606060048054610ac190611ccd565b80601f0160208091040260200160405190810160405280929190818152602001828054610aed90611ccd565b8015610b385780601f10610b0f57610100808354040283529160200191610b38565b820191905f5260205f20905b815481529060010190602001808311610b1b57829003601f168201915b5050505050905090565b610b4a61158b565b6006805490508210610b91576040517f08c379a0000000000000000000000000000000000000000000000000000000008152600401610b8890612076565b60405180910390fd5b5f60068381548110610ba657610ba5611d90565b5b905f5260205f20906009020190505f610bc0825f016110bc565b67ffffffffffffffff811115610bd957610bd8611852565b5b604051908082528060200260200182016040528015610c075781602001602082028036833780820191505090505b5090505f5f90505b610c1a835f016110bc565b811015610c9057610c3681845f016110cf90919063ffffffff16565b828281518110610c4957610c48611d90565b5b602002602001019073ffffffffffffffffffffffffffffffffffffffff16908173ffffffffffffffffffffffffffffffffffffffff16815250508080600101915050610c0f565b50604051806101200160405280828152602001836002018054610cb290611ccd565b80601f0160208091040260200160405190810160405280929190818152602001828054610cde90611ccd565b8015610d295780601f10610d0057610100808354040283529160200191610d29565b820191905f5260205f20905b815481529060010190602001808311610d0c57829003601f168201915b505050505081526020018360030154815260200183600401548152602001836005015481526020018360060154815260200183600701548152602001836008015f9054906101000a900460ff16151581526020018360080160019054906101000a900460ff16151581525092505050919050565b5f5f610da7610e47565b9050610db4818585610ef3565b600191505092915050565b60055481565b5f60015f8473ffffffffffffffffffffffffffffffffffffffff1673ffffffffffffffffffffffffffffffffffffffff1681526020019081526020015f205f8373ffffffffffffffffffffffffffffffffffffffff1673ffffffffffffffffffffffffffffffffffffffff1681526020019081526020015f2054905092915050565b5f33905090565b610e5b83838360016110e6565b505050565b5f610e6b8484610dc5565b90507fffffffffffffffffffffffffffffffffffffffffffffffffffffffffffffffff811015610eed5781811015610ede578281836040517ffb8f41b2000000000000000000000000000000000000000000000000000000008152600401610ed593929190612138565b60405180910390fd5b610eec84848484035f6110e6565b5b50505050565b5f73ffffffffffffffffffffffffffffffffffffffff168373ffffffffffffffffffffffffffffffffffffffff1603610f63575f6040517f96c6fd1e000000000000000000000000000000000000000000000000000000008152600401610f5a919061216d565b60405180910390fd5b5f73ffffffffffffffffffffffffffffffffffffffff168273ffffffffffffffffffffffffffffffffffffffff1603610fd3575f6040517fec442f05000000000000000000000000000000000000000000000000000000008152600401610fca919061216d565b60405180910390fd5b610fde8383836112b5565b505050565b5f73ffffffffffffffffffffffffffffffffffffffff168273ffffffffffffffffffffffffffffffffffffffff1603611053575f6040517fec442f0500000000000000000000000000000000000000000000000000000000815260040161104a919061216d565b60405180910390fd5b61105e5f83836112b5565b5050565b5f611087835f018373ffffffffffffffffffffffffffffffffffffffff165f1b6114ce565b905092915050565b5f6110b4835f018373ffffffffffffffffffffffffffffffffffffffff165f1b6114ee565b905092915050565b5f6110c8825f01611555565b9050919050565b5f6110dc835f0183611564565b5f1c905092915050565b5f73ffffffffffffffffffffffffffffffffffffffff168473ffffffffffffffffffffffffffffffffffffffff1603611156575f6040517fe602df0500000000000000000000000000000000000000000000000000000000815260040161114d919061216d565b60405180910390fd5b5f73ffffffffffffffffffffffffffffffffffffffff168373ffffffffffffffffffffffffffffffffffffffff16036111c6575f6040517f94280d620000000000000000000000000000000000000000000000000000000081526004016111bd919061216d565b60405180910390fd5b8160015f8673ffffffffffffffffffffffffffffffffffffffff1673ffffffffffffffffffffffffffffffffffffffff1681526020019081526020015f205f8573ffffffffffffffffffffffffffffffffffffffff1673ffffffffffffffffffffffffffffffffffffffff1681526020019081526020015f208190555080156112af578273ffffffffffffffffffffffffffffffffffffffff168473ffffffffffffffffffffffffffffffffffffffff167f8c5be1e5ebec7d5bd14f71427d1e84f3dd0314c0f7b2291e5b200ac8c7c3b925846040516112a69190611782565b60405180910390a35b50505050565b5f73ffffffffffffffffffffffffffffffffffffffff168373ffffffffffffffffffffffffffffffffffffffff1603611305578060025f8282546112f99190611d2a565b925050819055506113d3565b5f5f5f8573ffffffffffffffffffffffffffffffffffffffff1673ffffffffffffffffffffffffffffffffffffffff1681526020019081526020015f205490508181101561138e578381836040517fe450d38c00000000000000000000000000000000000000000000000000000000815260040161138593929190612138565b60405180910390fd5b8181035f5f8673ffffffffffffffffffffffffffffffffffffffff1673ffffffffffffffffffffffffffffffffffffffff1681526020019081526020015f2081905550505b5f73ffffffffffffffffffffffffffffffffffffffff168273ffffffffffffffffffffffffffffffffffffffff160361141a578060025f8282540392505081905550611464565b805f5f8473ffffffffffffffffffffffffffffffffffffffff1673ffffffffffffffffffffffffffffffffffffffff1681526020019081526020015f205f82825401925050819055505b8173ffffffffffffffffffffffffffffffffffffffff168373ffffffffffffffffffffffffffffffffffffffff167fddf252ad1be2c89b69c2b068fc378daa952ba7f163c4a11628f55a4df523b3ef836040516114c19190611782565b60405180910390a3505050565b5f5f836001015f8481526020019081526020015f20541415905092915050565b5f6114f983836114ce565b61154b57825f0182908060018154018082558091505060019003905f5260205f20015f9091909190915055825f0180549050836001015f8481526020019081526020015f20819055506001905061154f565b5f90505b92915050565b5f815f01805490509050919050565b5f825f01828154811061157a57611579611d90565b5b905f5260205f200154905092915050565b60405180610120016040528060608152602001606081526020015f81526020015f81526020015f81526020015f81526020015f81526020015f151581526020015f151581525090565b5f81519050919050565b5f82825260208201905092915050565b8281835e5f83830152505050565b5f601f19601f8301169050919050565b5f611616826115d4565b61162081856115de565b93506116308185602086016115ee565b611639816115fc565b840191505092915050565b5f6020820190508181035f83015261165c818461160c565b905092915050565b5f604051905090565b5f5ffd5b5f5ffd5b5f73ffffffffffffffffffffffffffffffffffffffff82169050919050565b5f61169e82611675565b9050919050565b6116ae81611694565b81146116b8575f5ffd5b50565b5f813590506116c9816116a5565b92915050565b5f819050919050565b6116e1816116cf565b81146116eb575f5ffd5b50565b5f813590506116fc816116d8565b92915050565b5f5f604083850312156117185761171761166d565b5b5f611725858286016116bb565b9250506020611736858286016116ee565b9150509250929050565b5f8115159050919050565b61175481611740565b82525050565b5f60208201905061176d5f83018461174b565b92915050565b61177c816116cf565b82525050565b5f6020820190506117955f830184611773565b92915050565b5f5f5f606084860312156117b2576117b161166d565b5b5f6117bf868287016116bb565b93505060206117d0868287016116bb565b92505060406117e1868287016116ee565b9150509250925092565b5f60ff82169050919050565b611800816117eb565b82525050565b5f6020820190506118195f8301846117f7565b92915050565b5f602082840312156118345761183361166d565b5b5f611841848285016116bb565b91505092915050565b5f5ffd5b5f5ffd5b7f4e487b71000000000000000000000000000000000000000000000000000000005f52604160045260245ffd5b611888826115fc565b810181811067ffffffffffffffff821117156118a7576118a6611852565b5b80604052505050565b5f6118b9611664565b90506118c5828261187f565b919050565b5f67ffffffffffffffff8211156118e4576118e3611852565b5b6118ed826115fc565b9050602081019050919050565b828183375f83830152505050565b5f61191a611915846118ca565b6118b0565b9050828152602081018484840111156119365761193561184e565b5b6119418482856118fa565b509392505050565b5f82601f83011261195d5761195c61184a565b5b813561196d848260208601611908565b91505092915050565b5f5f6040838503121561198c5761198b61166d565b5b5f83013567ffffffffffffffff8111156119a9576119a8611671565b5b6119b585828601611949565b92505060206119c6858286016116ee565b9150509250929050565b600381106119dc575f5ffd5b50565b5f813590506119ed816119d0565b92915050565b5f5f60408385031215611a0957611a0861166d565b5b5f611a16858286016116ee565b9250506020611a27858286016119df565b9150509250929050565b5f60208284031215611a4657611a4561166d565b5b5f611a53848285016116ee565b91505092915050565b5f81519050919050565b5f82825260208201905092915050565b5f819050602082019050919050565b611a8e81611694565b82525050565b5f611a9f8383611a85565b60208301905092915050565b5f602082019050919050565b5f611ac182611a5c565b611acb8185611a66565b9350611ad683611a76565b805f5b83811015611b06578151611aed8882611a94565b9750611af883611aab565b925050600181019050611ad9565b5085935050505092915050565b5f82825260208201905092915050565b5f611b2d826115d4565b611b378185611b13565b9350611b478185602086016115ee565b611b50816115fc565b840191505092915050565b611b64816116cf565b82525050565b611b7381611740565b82525050565b5f61012083015f8301518482035f860152611b948282611ab7565b91505060208301518482036020860152611bae8282611b23565b9150506040830151611bc36040860182611b5b565b506060830151611bd66060860182611b5b565b506080830151611be96080860182611b5b565b5060a0830151611bfc60a0860182611b5b565b5060c0830151611c0f60c0860182611b5b565b5060e0830151611c2260e0860182611b6a565b50610100830151611c37610100860182611b6a565b508091505092915050565b5f6020820190508181035f830152611c5a8184611b79565b905092915050565b5f5f60408385031215611c7857611c7761166d565b5b5f611c85858286016116bb565b9250506020611c96858286016116bb565b9150509250929050565b7f4e487b71000000000000000000000000000000000000000000000000000000005f52602260045260245ffd5b5f6002820490506001821680611ce457607f821691505b602082108103611cf757611cf6611ca0565b5b50919050565b7f4e487b71000000000000000000000000000000000000000000000000000000005f52601160045260245ffd5b5f611d34826116cf565b9150611d3f836116cf565b9250828201905080821115611d5757611d56611cfd565b5b92915050565b5f611d67826116cf565b9150611d72836116cf565b9250828203905081811115611d8a57611d89611cfd565b5b92915050565b7f4e487b71000000000000000000000000000000000000000000000000000000005f52603260045260245ffd5b5f819050815f5260205f209050919050565b5f6020601f8301049050919050565b5f82821b905092915050565b5f60088302611e197fffffffffffffffffffffffffffffffffffffffffffffffffffffffffffffffff82611dde565b611e238683611dde565b95508019841693508086168417925050509392505050565b5f819050919050565b5f611e5e611e59611e54846116cf565b611e3b565b6116cf565b9050919050565b5f819050919050565b611e7783611e44565b611e8b611e8382611e65565b848454611dea565b825550505050565b5f5f905090565b611ea2611e93565b611ead818484611e6e565b505050565b5b81811015611ed057611ec55f82611e9a565b600181019050611eb3565b5050565b601f821115611f1557611ee681611dbd565b611eef84611dcf565b81016020851015611efe578190505b611f12611f0a85611dcf565b830182611eb2565b50505b505050565b5f82821c905092915050565b5f611f355f1984600802611f1a565b1980831691505092915050565b5f611f4d8383611f26565b9150826002028217905092915050565b611f66826115d4565b67ffffffffffffffff811115611f7f57611f7e611852565b5b611f898254611ccd565b611f94828285611ed4565b5f60209050601f831160018114611fc5575f8415611fb3578287015190505b611fbd8582611f42565b865550612024565b601f198416611fd386611dbd565b5f5b82811015611ffa57848901518255600182019150602085019450602081019050611fd5565b868310156120175784890151612013601f891682611f26565b8355505b6001600288020188555050505b505050505050565b7f497373756520646f6573206e6f742065786973740000000000000000000000005f82015250565b5f6120606014836115de565b915061206b8261202c565b602082019050919050565b5f6020820190508181035f83015261208d81612054565b9050919050565b7f4e6f20746f6b656e732068656c640000000000000000000000000000000000005f82015250565b5f6120c8600e836115de565b91506120d382612094565b602082019050919050565b5f6020820190508181035f8301526120f5816120bc565b9050919050565b7f4e487b71000000000000000000000000000000000000000000000000000000005f52602160045260245ffd5b61213281611694565b82525050565b5f60608201905061214b5f830186612129565b6121586020830185611773565b6121656040830184611773565b949350505050565b5f6020820190506121805f830184612129565b9291505056fea264697066735822122079b4b9b797c817c34355039ef8dc6f25f9d32b7f0e08d95965ff49cd685e148664736f6c634300081e0033","linkReferences":{}},"methodIdentifiers":{"allowance(address,address)":"dd62ed3e","approve(address,uint256)":"095ea7b3","balanceOf(address)":"70a08231","claim()":"4e71d92d","createIssue(string,uint256)":"8615d855","decimals()":"313ce567","getIssue(uint256)":"976b3113","getIssuesLength()":"7cd1fa63","hasClaimed(address)":"73b2e80e","maxSupply()":"d5abeb01","name()":"06fdde03","symbol()":"95d89b41","totalSupply()":"18160ddd","transfer(address,uint256)":"a9059cbb","transferFrom(address,address,uint256)":"23b872dd","vote(uint256,uint8)":"943e8216"},"id":37}